{
  "_format": "hh-sol-artifact-1",
  "contractName": "BancorFormula",
  "sourceName": "contracts/BancorFormula.sol",
  "abi": [
    {
      "inputs": [
        {
          "internalType": "uint256",
          "name": "_supply",
          "type": "uint256"
        },
        {
          "internalType": "uint256",
          "name": "_connectorBalance",
          "type": "uint256"
        },
        {
          "internalType": "uint32",
          "name": "_connectorWeight",
          "type": "uint32"
        },
        {
          "internalType": "uint256",
          "name": "_depositAmount",
          "type": "uint256"
        }
      ],
      "name": "calculatePurchaseReturn",
      "outputs": [
        {
          "internalType": "uint256",
          "name": "",
          "type": "uint256"
        }
      ],
      "stateMutability": "view",
      "type": "function"
    },
    {
      "inputs": [
        {
          "internalType": "uint256",
          "name": "_supply",
          "type": "uint256"
        },
        {
          "internalType": "uint256",
          "name": "_connectorBalance",
          "type": "uint256"
        },
        {
          "internalType": "uint32",
          "name": "_connectorWeight",
          "type": "uint32"
        },
        {
          "internalType": "uint256",
          "name": "_sellAmount",
          "type": "uint256"
        }
      ],
      "name": "calculateSaleReturn",
      "outputs": [
        {
          "internalType": "uint256",
          "name": "",
          "type": "uint256"
        }
      ],
      "stateMutability": "view",
      "type": "function"
    },
    {
      "inputs": [],
      "name": "version",
      "outputs": [
        {
          "internalType": "string",
          "name": "",
          "type": "string"
        }
      ],
      "stateMutability": "view",
      "type": "function"
    }
  ],
  "bytecode": "0x60c06040526003608081905262302e3360e81b60a090815262000026916000919062000764565b503480156200003457600080fd5b506001641c35fedd1560601b036021556001646c3390ecc9605e1b036022556001640cf801476160611b0360235560016431bdb23e1d605f1b0360245560016502fb1d8fe083605b1b0360255560016505b771955b37605a1b036026556001650af67a93bb5160591b0360275560016515060c256cb360581b036028556001651428a2f98d7360581b036029556001654d515663970960561b03602a55600165944620b0e70f60551b03602b55600166011c592761c66760541b03602c5560016602214d10d014eb60531b03602d55600166020ade36b7dbef60531b03602e5560016603eab73b3bbfe360521b03602f556001660782ee3593f6d760511b036030556001661ccf4b44bb4821604f1b0360315560016606e7f88ad8a77760511b0360325560016669f3d1c921891d604d1b03603355600166cb2ff529eb71e5604c1b03603455600166c2d415c3db974b604c1b0360355560016702eb40f9f620fda7604a1b0360365560016705990681d961a1eb60491b03603755600167055e12902701414760491b0360385560016714962dee9dc9764160471b0360395560016704ef57b9b560fab560491b03603a5560016712ed7b32a58f552b60471b03603b556001679131271922eaa60760441b03603c556001678b380f3558668c4760441b03603d556001680215f77c045fbe885760421b03603e556001600160831b03603f556001670f577eded5773a1160471b036040556001680eb5ec597592befbf5603f1b036041556001681c35fedd14b861eb05603e1b036042556001683619c87664579bc94b603d1b0360435560016867c00a3b07ffc01fd7603c1b03604455600168c6f6c8f8739773a7a5603b1b03604555600168bec763f8209b7a72b1603b1b0360465560016902dbb8caad9b7097b91b60391b03604755600169057b3d49dda84556d6f760381b03604855600169054183095b2c8ececf3160381b036049556001690a14517cc6b9457111ef60371b03604a5560016913545598e5c23276ccf160361b03604b556001692511882c39c3adea96ff60351b03604c55600169471649d87199aa99075760341b03604d557004429a21a029d4c1457cfbffffffffffff604e55700415bc6d6fb7dd71af2cb3ffffffffffff604f557003eab73b3bbfe282243ce1ffffffffffff6050557003c1771ac9fb6b4c18e229ffffffffffff605155700399e96897690418f785257fffffffffff605255700373fc456c53bb779bf0ea9fffffffffff60535570034f9e8e490c48e67e6ab8bfffffffffff60545570032cbfd4a7adc790560b3337ffffffffff60555570030b50570f6e5d2acca94613ffffffffff6056557002eb40f9f620fda6b56c2861ffffffffff6057557002cc8340ecb0d0f520a6af58ffffffffff6058557002af09481380a0a35cf1ba02ffffffffff605955700292c5bdd3b92ec810287b1b3fffffffff605a55700277abdcdab07d5a77ac6d6b9fffffffff605b5570025daf6654b1eaa55fd64df5efffffffff605c55700244c49c648baa98192dce88b7ffffffff605d5570022ce03cd5619a311b2471268bffffffff605e55700215f77c045fbe885654a44a0fffffffff605f556001600160811b036060557001eaefdbdaaee7421fc4d3ede5ffffffff6061557001d6bd8b2eb257df7e8ca57b09bfffffff6062557001c35fedd14b861eb0443f7f133fffffff6063557001b0ce43b322bcde4a56e8ada5afffffff60645570019f0028ec1fff007f5a195a39dfffffff60655570018ded91f0e72ee74f49b15ba527ffffff60665570017d8ec7f04136f4e5615fd41a63ffffff60675570016ddc6556cdb84bdc8d12d22e6fffffff60685570015ecf52776a1155b5bd8395814f7fffff60695570015060c256cb23b3b3cc3754cf40ffffff606a557001428a2f98d728ae223ddab715be3fffff606b5570013545598e5c23276ccf0ede68034fffff606c557001288c4161ce1d6f54b7f61081194fffff606d5570011c592761c666aa641d5a01a40f17ffff606e55700110a688680a7530515f3e6e6cfdcdffff606f557001056f1b5bedf75c6bcb2ce8aed428ffff6070556ffaadceceeff8a0890f3875f008277fff6071556ff05dc6b27edad306388a600f6ba0bfff6072556fe67a5a25da41063de1495d5b18cdbfff6073556fdcff115b14eedde6fc3aa5353f2e4fff6074556fd3e7a3924312399f9aae2e0f868f8fff6075556fcb2ff529eb71e41582cccd5a1ee26fff6076556fc2d415c3db974ab32a51840c0b67edff6077556fbad03e7d883f69ad5b0a186184e06bff6078556fb320d03b2c343d4829abd6075f0cc5ff6079556fabc25204e02828d73c6e80bcdb1a95bf607a556fa4b16f74ee4bb2040a1ec6c15fbbf2df607b556f9deaf736ac1f569deb1b5ae3f36c130f607c556f976bd9952c7aa957f5937d790ef65037607d556f9131271922eaa6064b73a22d0bd4f2bf607e556f8b380f3558668c46c91c49a2f8e967b9607f556f857ddf0117efa215952912839f6473e660805562000847565b82805462000772906200080a565b90600052602060002090601f016020900481019282620007965760008555620007e1565b82601f10620007b157805160ff1916838001178555620007e1565b82800160010185558215620007e1579182015b82811115620007e1578251825591602001919060010190620007c4565b50620007ef929150620007f3565b5090565b5b80821115620007ef5760008155600101620007f4565b600181811c908216806200081f57607f821691505b602082108114156200084157634e487b7160e01b600052602260045260246000fd5b50919050565b611ae280620008576000396000f3fe608060405234801561001057600080fd5b50600436106100415760003560e01c806329a00e7c1461004657806349f9b0f71461006c57806354fd4d501461007f575b600080fd5b6100596100543660046118af565b610094565b6040519081526020015b60405180910390f35b61005961007a3660046118af565b61015f565b61008761023c565b60405161006391906118f5565b600080851180156100a55750600084115b80156100b7575060008363ffffffff16115b80156100cc5750620f424063ffffffff841611155b6100d557600080fd5b816100e257506000610157565b63ffffffff8316620f4240141561010e576101078461010187856102ca565b906102dd565b9050610157565b6000808061011c85886102e9565b905061012d818888620f42406102f5565b9093509150600060ff83166101428a866102ca565b901c905061015089826119da565b9450505050505b949350505050565b600080851180156101705750600084115b8015610182575060008363ffffffff16115b80156101975750620f424063ffffffff841611155b80156101a35750848211155b6101ac57600080fd5b816101b957506000610157565b848214156101c8575082610157565b63ffffffff8316620f424014156101e7576101078561010186856102ca565b600080806101f585896119da565b90506102068882620f4240896102f5565b9093509150600061021788856102ca565b905060ff831688901b61022e856101018484610447565b9a9950505050505050505050565b6000805461024990611a31565b80601f016020809104026020016040519081016040528092919081815260200182805461027590611a31565b80156102c25780601f10610297576101008083540402835291602001916102c2565b820191906000526020600020905b8154815290600101906020018083116102a557829003601f168201915b505050505081565b60006102d682846119bb565b9392505050565b60006102d68284611985565b60006102d68284611948565b600080600160811b861061031957634e487b7160e01b600052600160045260246000fd5b8486101561036d5760405162461bcd60e51b815260206004820152601c60248201527f4261736573203c203120617265206e6f7420737570706f727465642e00000000604482015260640160405180910390fd5b6000808661037f6001607f1b8a6119bb565b6103899190611985565b905070015bf0a8b1457695355fb8ac404e7a79e38110156103b4576103ad81610453565b91506103c0565b6103bd816109cc565b91505b60008563ffffffff168763ffffffff16846103db91906119bb565b6103e59190611985565b9050600160831b81101561040a576103fc81610abb565b607f9450945050505061043e565b6000610415826110e6565b905061043161042582607f6119f1565b60ff1683901c826111d9565b9550935061043e92505050565b94509492505050565b60006102d682846119da565b6000808080806fd3094c70f034de4b96ff7d5b6f99fcd886106104ac5761047e6001607e1b85611948565b93506fd3094c70f034de4b96ff7d5b6f99fcd861049f6001607f1b886119bb565b6104a99190611985565b95505b6fa45af1e1f40c333b3de1db4dd55f29a786106104ff576104d16001607d1b85611948565b93506fa45af1e1f40c333b3de1db4dd55f29a76104f26001607f1b886119bb565b6104fc9190611985565b95505b6f910b022db7ae67ce76b441c27035c6a18610610552576105246001607c1b85611948565b93506f910b022db7ae67ce76b441c27035c6a16105456001607f1b886119bb565b61054f9190611985565b95505b6f88415abbe9a76bead8d00cf112e4d4a886106105a5576105776001607b1b85611948565b93506f88415abbe9a76bead8d00cf112e4d4a86105986001607f1b886119bb565b6105a29190611985565b95505b6f84102b00893f64c705e841d5d4064bd386106105f8576105ca6001607a1b85611948565b93506f84102b00893f64c705e841d5d4064bd36105eb6001607f1b886119bb565b6105f59190611985565b95505b6f8204055aaef1c8bd5c3259f4822735a2861061064b5761061d600160791b85611948565b93506f8204055aaef1c8bd5c3259f4822735a261063e6001607f1b886119bb565b6106489190611985565b95505b6f810100ab00222d861931c15e39b44e99861061069e57610670600160781b85611948565b93506f810100ab00222d861931c15e39b44e996106916001607f1b886119bb565b61069b9190611985565b95505b6f808040155aabbbe9451521693554f73386106106f1576106c3600160771b85611948565b93506f808040155aabbbe9451521693554f7336106e46001607f1b886119bb565b6106ee9190611985565b95505b6106ff6001607f1b876119da565b92508291506001607f1b61071383806119bb565b61071d9190611985565b9050600160801b61072e84826119da565b61073890846119bb565b6107429190611985565b61074c9085611948565b93506001607f1b61075d82846119bb565b6107679190611985565b9150600160811b610788846faaaaaaaaaaaaaaaaaaaaaaaaaaaaaaaa6119da565b61079290846119bb565b61079c9190611985565b6107a69085611948565b93506001607f1b6107b782846119bb565b6107c19190611985565b9150600360801b6107e2846f999999999999999999999999999999996119da565b6107ec90846119bb565b6107f69190611985565b6108009085611948565b93506001607f1b61081182846119bb565b61081b9190611985565b9150600160821b61083c846f924924924924924924924924924924926119da565b61084690846119bb565b6108509190611985565b61085a9085611948565b93506001607f1b61086b82846119bb565b6108759190611985565b9150600560801b610896846f8e38e38e38e38e38e38e38e38e38e38e6119da565b6108a090846119bb565b6108aa9190611985565b6108b49085611948565b93506001607f1b6108c582846119bb565b6108cf9190611985565b9150600360811b6108f0846f8ba2e8ba2e8ba2e8ba2e8ba2e8ba2e8b6119da565b6108fa90846119bb565b6109049190611985565b61090e9085611948565b93506001607f1b61091f82846119bb565b6109299190611985565b9150600760801b61094a846f89d89d89d89d89d89d89d89d89d89d896119da565b61095490846119bb565b61095e9190611985565b6109689085611948565b93506001607f1b61097982846119bb565b6109839190611985565b9150600160831b6109a4846f888888888888888888888888888888886119da565b6109ae90846119bb565b6109b89190611985565b6109c29085611948565b9695505050505050565b60008082600160801b8110610a115760006109f36109ee6001607f1b84611985565b611840565b60ff811692831c92909150610a0d906001607f1b906119bb565b9250505b6001607f1b811115610a8657607f5b60ff811615610a84576001607f1b610a3883806119bb565b610a429190611985565b9150600160801b8210610a7457600191821c91610a5f90826119f1565b60ff166001901b83610a719190611948565b92505b610a7d81611a14565b9050610a20565b505b6f05b9de1d10bf4103d647b0955897ba80610ab16f03f80fe03f80fe03f80fe03f80fe03f8846119bb565b6101579190611985565b6000808080610ace6001607c1b86611a6c565b91508190506001607f1b610ae282806119bb565b610aec9190611985565b9050610b00816710e1b3be415a00006119bb565b610b0a9084611948565b92506001607f1b610b1b83836119bb565b610b259190611985565b9050610b39816705a0913f6b1e00006119bb565b610b439084611948565b92506001607f1b610b5483836119bb565b610b5e9190611985565b9050610b7281670168244fdac780006119bb565b610b7c9084611948565b92506001607f1b610b8d83836119bb565b610b979190611985565b9050610baa81664807432bc180006119bb565b610bb49084611948565b92506001607f1b610bc583836119bb565b610bcf9190611985565b9050610be281660c0135dca040006119bb565b610bec9084611948565b92506001607f1b610bfd83836119bb565b610c079190611985565b9050610c1a816601b707b1cdc0006119bb565b610c249084611948565b92506001607f1b610c3583836119bb565b610c3f9190611985565b9050610c51816536e0f639b8006119bb565b610c5b9084611948565b92506001607f1b610c6c83836119bb565b610c769190611985565b9050610c8881650618fee9f8006119bb565b610c929084611948565b92506001607f1b610ca383836119bb565b610cad9190611985565b9050610cbe81649c197dcc006119bb565b610cc89084611948565b92506001607f1b610cd983836119bb565b610ce39190611985565b9050610cf481640e30dce4006119bb565b610cfe9084611948565b92506001607f1b610d0f83836119bb565b610d199190611985565b9050610d2a8164012ebd13006119bb565b610d349084611948565b92506001607f1b610d4583836119bb565b610d4f9190611985565b9050610d5f816317499f006119bb565b610d699084611948565b92506001607f1b610d7a83836119bb565b610d849190611985565b9050610d94816301a9d4806119bb565b610d9e9084611948565b92506001607f1b610daf83836119bb565b610db99190611985565b9050610dc881621c63806119bb565b610dd29084611948565b92506001607f1b610de383836119bb565b610ded9190611985565b9050610dfc816201c6386119bb565b610e069084611948565b92506001607f1b610e1783836119bb565b610e219190611985565b9050610e2f81611ab86119bb565b610e399084611948565b92506001607f1b610e4a83836119bb565b610e549190611985565b9050610e628161017c6119bb565b610e6c9084611948565b92506001607f1b610e7d83836119bb565b610e879190611985565b9050610e948160146119bb565b610e9e9084611948565b92506001607f1b610eaf83836119bb565b610eb99190611985565b9050610ec68160016119bb565b610ed09084611948565b92506001607f1b82610eea6721c3677c82b4000086611985565b610ef49190611948565b610efe9190611948565b92506001607c1b851615610f465770018ebef9eac820ae8682b9793ac6d1e776610f39847001c3d6a24ed82218787d624d3e5eba95f96119bb565b610f439190611985565b92505b6001607d1b851615610f8c577001368b2fc6f9609fe7aceb46aa619baed4610f7f8470018ebef9eac820ae8682b9793ac6d1e7786119bb565b610f899190611985565b92505b6001607e1b851615610fd1576fbc5ab1b16779be3575bd8f0520a9f21f610fc4847001368b2fc6f9609fe7aceb46aa619baed56119bb565b610fce9190611985565b92505b6001607f1b851615611015576f454aaa8efe072e7f6ddbab84b40a55c9611008846fbc5ab1b16779be3575bd8f0520a9f21e6119bb565b6110129190611985565b92505b600160801b851615611059576f0960aadc109e7a3bf4578099615711ea61104c846f454aaa8efe072e7f6ddbab84b40a55c56119bb565b6110569190611985565b92505b600160811b85161561109c576e2bf84208204f5977f9a8cf01fdce3d61108f846f0960aadc109e7a3bf4578099615711d76119bb565b6110999190611985565b92505b600160821b8516156110dd576d03c6ab775dd0b95b4cbee7e65d116110d0846e2bf84208204f5977f9a8cf01fdc3076119bb565b6110da9190611985565b92505b50909392505050565b60006020607f5b60ff81166110fc836001611960565b60ff16101561115d57600060026111138385611960565b61111d9190611999565b90508460018260ff166080811061114457634e487b7160e01b600052603260045260246000fd5b01541061115357809250611157565b8091505b506110ed565b8360018260ff166080811061118257634e487b7160e01b600052603260045260246000fd5b015410611190579392505050565b8360018360ff16608081106111b557634e487b7160e01b600052603260045260246000fd5b0154106111c3575092915050565b634e487b7160e01b600052600160045260246000fd5b6000828160ff84166111eb83806119bb565b901c9150611209826f03442c4e6074a82f1797f72ac00000006119bb565b6112139082611948565b905060ff841661122386846119bb565b901c9150611241826f0116b96f757c380fb287fd0e400000006119bb565b61124b9082611948565b905060ff841661125b86846119bb565b901c9150611278826e45ae5bdd5f0e03eca1ff43900000006119bb565b6112829082611948565b905060ff841661129286846119bb565b901c91506112af826e0defabf91302cd95b9ffda500000006119bb565b6112b99082611948565b905060ff84166112c986846119bb565b901c91506112e6826e02529ca9832b22439efff9b80000006119bb565b6112f09082611948565b905060ff841661130086846119bb565b901c915061131c826d54f1cf12bd04e516b6da880000006119bb565b6113269082611948565b905060ff841661133686846119bb565b901c9150611352826d0a9e39e257a09ca2d6db510000006119bb565b61135c9082611948565b905060ff841661136c86846119bb565b901c9150611388826d012e066e7b839fa050c3090000006119bb565b6113929082611948565b905060ff84166113a286846119bb565b901c91506113bd826c1e33d7d926c329a1ad1a8000006119bb565b6113c79082611948565b905060ff84166113d786846119bb565b901c91506113f2826c02bee513bdb4a6b19b5f8000006119bb565b6113fc9082611948565b905060ff841661140c86846119bb565b901c9150611426826b3a9316fa79b88eccf2a000006119bb565b6114309082611948565b905060ff841661144086846119bb565b901c915061145a826b048177ebe1fa8123752000006119bb565b6114649082611948565b905060ff841661147486846119bb565b901c915061148d826a5263fe90242dcbacf000006119bb565b6114979082611948565b905060ff84166114a786846119bb565b901c91506114c0826a057e22099c030d941000006119bb565b6114ca9082611948565b905060ff84166114da86846119bb565b901c91506114f2826957e22099c030d94100006119bb565b6114fc9082611948565b905060ff841661150c86846119bb565b901c91506115248269052b6b545699763100006119bb565b61152e9082611948565b905060ff841661153e86846119bb565b901c915061155582684985f67696bf7480006119bb565b61155f9082611948565b905060ff841661156f86846119bb565b901c9150611586826803dea12ea99e4980006119bb565b6115909082611948565b905060ff84166115a086846119bb565b901c91506115b6826731880f2214b6e0006119bb565b6115c09082611948565b905060ff84166115d086846119bb565b901c91506115e68267025bcff56eb360006119bb565b6115f09082611948565b905060ff841661160086846119bb565b901c915061161582661b722e10ab10006119bb565b61161f9082611948565b905060ff841661162f86846119bb565b901c9150611644826601317c700770006119bb565b61164e9082611948565b905060ff841661165e86846119bb565b901c915061167282650cba84aafa006119bb565b61167c9082611948565b905060ff841661168c86846119bb565b901c915061169f826482573a0a006119bb565b6116a99082611948565b905060ff84166116b986846119bb565b901c91506116cc826405035ad9006119bb565b6116d69082611948565b905060ff84166116e686846119bb565b901c91506116f882632f881b006119bb565b6117029082611948565b905060ff841661171286846119bb565b901c9150611724826301b293406119bb565b61172e9082611948565b905060ff841661173e86846119bb565b901c915061174f82620efc406119bb565b6117599082611948565b905060ff841661176986846119bb565b901c915061177982617fe06119bb565b6117839082611948565b905060ff841661179386846119bb565b901c91506117a3826104206119bb565b6117ad9082611948565b905060ff84166117bd86846119bb565b901c91506117cc8260216119bb565b6117d69082611948565b905060ff84166117e686846119bb565b901c91506117f58260016119bb565b6117ff9082611948565b9050600160ff85161b856118236f0688589cc0e9505e2f2fee558000000084611985565b61182d9190611948565b6118379190611948565b95945050505050565b60008082610100811015611874575b600181111561186f57600190811c906118689083611960565b915061184f565b6118a8565b60805b60ff8116156118a657600160ff82161b821061189b579182179160ff81169190911c905b60011c607f16611877565b505b5092915050565b600080600080608085870312156118c4578384fd5b8435935060208501359250604085013563ffffffff811681146118e5578283fd5b9396929550929360600135925050565b6000602080835283518082850152825b8181101561192157858101830151858201604001528201611905565b818111156119325783604083870101525b50601f01601f1916929092016040019392505050565b6000821982111561195b5761195b611a80565b500190565b600060ff821660ff84168060ff0382111561197d5761197d611a80565b019392505050565b60008261199457611994611a96565b500490565b600060ff8316806119ac576119ac611a96565b8060ff84160491505092915050565b60008160001904831182151516156119d5576119d5611a80565b500290565b6000828210156119ec576119ec611a80565b500390565b600060ff821660ff841680821015611a0b57611a0b611a80565b90039392505050565b600060ff821680611a2757611a27611a80565b6000190192915050565b600181811c90821680611a4557607f821691505b60208210811415611a6657634e487b7160e01b600052602260045260246000fd5b50919050565b600082611a7b57611a7b611a96565b500690565b634e487b7160e01b600052601160045260246000fd5b634e487b7160e01b600052601260045260246000fdfea2646970667358221220d0789815d977182e66f56df3edbc09606e14dbf9936d954ae2774442c61a21b164736f6c63430008040033",
  "linkReferences": {},
  "deployedLinkReferences": {}
}