{
  "_format": "hh-sol-artifact-1",
  "contractName": "ERC20Token",
  "sourceName": "contracts/ERC20Token.sol",
  "abi": [
    {
      "inputs": [
        {
          "internalType": "string",
          "name": "_name",
          "type": "string"
        },
        {
          "internalType": "string",
          "name": "_symbol",
          "type": "string"
        },
        {
          "internalType": "uint256",
          "name": "_init_supply",
          "type": "uint256"
        }
      ],
      "stateMutability": "nonpayable",
      "type": "constructor"
    },
    {
      "anonymous": false,
      "inputs": [
        {
          "indexed": true,
          "internalType": "address",
          "name": "owner",
          "type": "address"
        },
        {
          "indexed": true,
          "internalType": "address",
          "name": "spender",
          "type": "address"
        },
        {
          "indexed": false,
          "internalType": "uint256",
          "name": "value",
          "type": "uint256"
        }
      ],
      "name": "Approval",
      "type": "event"
    },
    {
      "anonymous": false,
      "inputs": [
        {
          "indexed": true,
          "internalType": "address",
          "name": "delegator",
          "type": "address"
        },
        {
          "indexed": true,
          "internalType": "address",
          "name": "fromDelegate",
          "type": "address"
        },
        {
          "indexed": true,
          "internalType": "address",
          "name": "toDelegate",
          "type": "address"
        }
      ],
      "name": "DelegateChanged",
      "type": "event"
    },
    {
      "anonymous": false,
      "inputs": [
        {
          "indexed": true,
          "internalType": "address",
          "name": "delegate",
          "type": "address"
        },
        {
          "indexed": false,
          "internalType": "uint256",
          "name": "previousBalance",
          "type": "uint256"
        },
        {
          "indexed": false,
          "internalType": "uint256",
          "name": "newBalance",
          "type": "uint256"
        }
      ],
      "name": "DelegateVotesChanged",
      "type": "event"
    },
    {
      "anonymous": false,
      "inputs": [
        {
          "indexed": true,
          "internalType": "address",
          "name": "previousOwner",
          "type": "address"
        },
        {
          "indexed": true,
          "internalType": "address",
          "name": "newOwner",
          "type": "address"
        }
      ],
      "name": "OwnershipTransferred",
      "type": "event"
    },
    {
      "anonymous": false,
      "inputs": [
        {
          "indexed": true,
          "internalType": "address",
          "name": "from",
          "type": "address"
        },
        {
          "indexed": true,
          "internalType": "address",
          "name": "to",
          "type": "address"
        },
        {
          "indexed": false,
          "internalType": "uint256",
          "name": "value",
          "type": "uint256"
        }
      ],
      "name": "Transfer",
      "type": "event"
    },
    {
      "inputs": [],
      "name": "DOMAIN_SEPARATOR",
      "outputs": [
        {
          "internalType": "bytes32",
          "name": "",
          "type": "bytes32"
        }
      ],
      "stateMutability": "view",
      "type": "function"
    },
    {
      "inputs": [
        {
          "internalType": "address",
          "name": "owner",
          "type": "address"
        },
        {
          "internalType": "address",
          "name": "spender",
          "type": "address"
        }
      ],
      "name": "allowance",
      "outputs": [
        {
          "internalType": "uint256",
          "name": "",
          "type": "uint256"
        }
      ],
      "stateMutability": "view",
      "type": "function"
    },
    {
      "inputs": [
        {
          "internalType": "address",
          "name": "spender",
          "type": "address"
        },
        {
          "internalType": "uint256",
          "name": "amount",
          "type": "uint256"
        }
      ],
      "name": "approve",
      "outputs": [
        {
          "internalType": "bool",
          "name": "",
          "type": "bool"
        }
      ],
      "stateMutability": "nonpayable",
      "type": "function"
    },
    {
      "inputs": [
        {
          "internalType": "address",
          "name": "account",
          "type": "address"
        }
      ],
      "name": "balanceOf",
      "outputs": [
        {
          "internalType": "uint256",
          "name": "",
          "type": "uint256"
        }
      ],
      "stateMutability": "view",
      "type": "function"
    },
    {
      "inputs": [
        {
          "internalType": "address",
          "name": "account",
          "type": "address"
        },
        {
          "internalType": "uint32",
          "name": "pos",
          "type": "uint32"
        }
      ],
      "name": "checkpoints",
      "outputs": [
        {
          "components": [
            {
              "internalType": "uint32",
              "name": "fromBlock",
              "type": "uint32"
            },
            {
              "internalType": "uint224",
              "name": "votes",
              "type": "uint224"
            }
          ],
          "internalType": "struct ERC20Votes.Checkpoint",
          "name": "",
          "type": "tuple"
        }
      ],
      "stateMutability": "view",
      "type": "function"
    },
    {
      "inputs": [],
      "name": "decimals",
      "outputs": [
        {
          "internalType": "uint8",
          "name": "",
          "type": "uint8"
        }
      ],
      "stateMutability": "view",
      "type": "function"
    },
    {
      "inputs": [
        {
          "internalType": "address",
          "name": "spender",
          "type": "address"
        },
        {
          "internalType": "uint256",
          "name": "subtractedValue",
          "type": "uint256"
        }
      ],
      "name": "decreaseAllowance",
      "outputs": [
        {
          "internalType": "bool",
          "name": "",
          "type": "bool"
        }
      ],
      "stateMutability": "nonpayable",
      "type": "function"
    },
    {
      "inputs": [
        {
          "internalType": "address",
          "name": "delegatee",
          "type": "address"
        }
      ],
      "name": "delegate",
      "outputs": [],
      "stateMutability": "nonpayable",
      "type": "function"
    },
    {
      "inputs": [
        {
          "internalType": "address",
          "name": "delegatee",
          "type": "address"
        },
        {
          "internalType": "uint256",
          "name": "nonce",
          "type": "uint256"
        },
        {
          "internalType": "uint256",
          "name": "expiry",
          "type": "uint256"
        },
        {
          "internalType": "uint8",
          "name": "v",
          "type": "uint8"
        },
        {
          "internalType": "bytes32",
          "name": "r",
          "type": "bytes32"
        },
        {
          "internalType": "bytes32",
          "name": "s",
          "type": "bytes32"
        }
      ],
      "name": "delegateBySig",
      "outputs": [],
      "stateMutability": "nonpayable",
      "type": "function"
    },
    {
      "inputs": [
        {
          "internalType": "address",
          "name": "account",
          "type": "address"
        }
      ],
      "name": "delegates",
      "outputs": [
        {
          "internalType": "address",
          "name": "",
          "type": "address"
        }
      ],
      "stateMutability": "view",
      "type": "function"
    },
    {
      "inputs": [
        {
          "internalType": "uint256",
          "name": "blockNumber",
          "type": "uint256"
        }
      ],
      "name": "getPastTotalSupply",
      "outputs": [
        {
          "internalType": "uint256",
          "name": "",
          "type": "uint256"
        }
      ],
      "stateMutability": "view",
      "type": "function"
    },
    {
      "inputs": [
        {
          "internalType": "address",
          "name": "account",
          "type": "address"
        },
        {
          "internalType": "uint256",
          "name": "blockNumber",
          "type": "uint256"
        }
      ],
      "name": "getPastVotes",
      "outputs": [
        {
          "internalType": "uint256",
          "name": "",
          "type": "uint256"
        }
      ],
      "stateMutability": "view",
      "type": "function"
    },
    {
      "inputs": [
        {
          "internalType": "address",
          "name": "account",
          "type": "address"
        }
      ],
      "name": "getVotes",
      "outputs": [
        {
          "internalType": "uint256",
          "name": "",
          "type": "uint256"
        }
      ],
      "stateMutability": "view",
      "type": "function"
    },
    {
      "inputs": [
        {
          "internalType": "address",
          "name": "spender",
          "type": "address"
        },
        {
          "internalType": "uint256",
          "name": "addedValue",
          "type": "uint256"
        }
      ],
      "name": "increaseAllowance",
      "outputs": [
        {
          "internalType": "bool",
          "name": "",
          "type": "bool"
        }
      ],
      "stateMutability": "nonpayable",
      "type": "function"
    },
    {
      "inputs": [
        {
          "internalType": "address",
          "name": "to",
          "type": "address"
        },
        {
          "internalType": "uint256",
          "name": "amount",
          "type": "uint256"
        }
      ],
      "name": "mint",
      "outputs": [],
      "stateMutability": "nonpayable",
      "type": "function"
    },
    {
      "inputs": [],
      "name": "name",
      "outputs": [
        {
          "internalType": "string",
          "name": "",
          "type": "string"
        }
      ],
      "stateMutability": "view",
      "type": "function"
    },
    {
      "inputs": [
        {
          "internalType": "address",
          "name": "owner",
          "type": "address"
        }
      ],
      "name": "nonces",
      "outputs": [
        {
          "internalType": "uint256",
          "name": "",
          "type": "uint256"
        }
      ],
      "stateMutability": "view",
      "type": "function"
    },
    {
      "inputs": [
        {
          "internalType": "address",
          "name": "account",
          "type": "address"
        }
      ],
      "name": "numCheckpoints",
      "outputs": [
        {
          "internalType": "uint32",
          "name": "",
          "type": "uint32"
        }
      ],
      "stateMutability": "view",
      "type": "function"
    },
    {
      "inputs": [],
      "name": "owner",
      "outputs": [
        {
          "internalType": "address",
          "name": "",
          "type": "address"
        }
      ],
      "stateMutability": "view",
      "type": "function"
    },
    {
      "inputs": [
        {
          "internalType": "address",
          "name": "owner",
          "type": "address"
        },
        {
          "internalType": "address",
          "name": "spender",
          "type": "address"
        },
        {
          "internalType": "uint256",
          "name": "value",
          "type": "uint256"
        },
        {
          "internalType": "uint256",
          "name": "deadline",
          "type": "uint256"
        },
        {
          "internalType": "uint8",
          "name": "v",
          "type": "uint8"
        },
        {
          "internalType": "bytes32",
          "name": "r",
          "type": "bytes32"
        },
        {
          "internalType": "bytes32",
          "name": "s",
          "type": "bytes32"
        }
      ],
      "name": "permit",
      "outputs": [],
      "stateMutability": "nonpayable",
      "type": "function"
    },
    {
      "inputs": [],
      "name": "renounceOwnership",
      "outputs": [],
      "stateMutability": "nonpayable",
      "type": "function"
    },
    {
      "inputs": [],
      "name": "symbol",
      "outputs": [
        {
          "internalType": "string",
          "name": "",
          "type": "string"
        }
      ],
      "stateMutability": "view",
      "type": "function"
    },
    {
      "inputs": [],
      "name": "totalSupply",
      "outputs": [
        {
          "internalType": "uint256",
          "name": "",
          "type": "uint256"
        }
      ],
      "stateMutability": "view",
      "type": "function"
    },
    {
      "inputs": [
        {
          "internalType": "address",
          "name": "to",
          "type": "address"
        },
        {
          "internalType": "uint256",
          "name": "amount",
          "type": "uint256"
        }
      ],
      "name": "transfer",
      "outputs": [
        {
          "internalType": "bool",
          "name": "",
          "type": "bool"
        }
      ],
      "stateMutability": "nonpayable",
      "type": "function"
    },
    {
      "inputs": [
        {
          "internalType": "address",
          "name": "from",
          "type": "address"
        },
        {
          "internalType": "address",
          "name": "to",
          "type": "address"
        },
        {
          "internalType": "uint256",
          "name": "amount",
          "type": "uint256"
        }
      ],
      "name": "transferFrom",
      "outputs": [
        {
          "internalType": "bool",
          "name": "",
          "type": "bool"
        }
      ],
      "stateMutability": "nonpayable",
      "type": "function"
    },
    {
      "inputs": [
        {
          "internalType": "address",
          "name": "newOwner",
          "type": "address"
        }
      ],
      "name": "transferOwnership",
      "outputs": [],
      "stateMutability": "nonpayable",
      "type": "function"
    }
  ],
  "bytecode": "0x6101406040523480156200001257600080fd5b506040516200299a3803806200299a83398101604081905262000035916200098e565b8280604051806040016040528060018152602001603160f81b815250858581600390805190602001906200006b9291906200083f565b508051620000819060049060208401906200083f565b5050506200009e620000986200015f60201b60201c565b62000163565b815160208084019190912082518383012060e08290526101008190524660a0818152604080517f8b73c3c69bb8fe3d512ecc4cf759cc79239f7b179b0ffacaa9a75d522b39400f81880181905281830187905260608201869052608082019490945230818401528151808203909301835260c00190528051940193909320919290916080523060601b60c0526101205250620001569350339250620001509150849050670de0b6b3a764000062000a19565b620001b5565b50505062000abe565b3390565b600580546001600160a01b038381166001600160a01b0319831681179093556040519116919082907f8be0079c531659141344cd1fd0a4f28419497f9722a3daafe3b4186f6b6457e090600090a35050565b6005546001600160a01b03163314620002155760405162461bcd60e51b815260206004820181905260248201527f4f776e61626c653a2063616c6c6572206973206e6f7420746865206f776e657260448201526064015b60405180910390fd5b62000221828262000225565b5050565b6200022182826200023c60201b62000bb31760201c565b620002538282620002ef60201b62000c431760201c565b6001600160e01b0362000267620003de8216565b1115620002d05760405162461bcd60e51b815260206004820152603060248201527f4552433230566f7465733a20746f74616c20737570706c79207269736b73206f60448201526f766572666c6f77696e6720766f74657360801b60648201526084016200020c565b620002e9600a62000d2a620003e460201b1783620003f9565b50505050565b6001600160a01b038216620003475760405162461bcd60e51b815260206004820152601f60248201527f45524332303a206d696e7420746f20746865207a65726f20616464726573730060448201526064016200020c565b80600260008282546200035b9190620009fe565b90915550506001600160a01b038216600090815260208190526040812080548392906200038a908490620009fe565b90915550506040518181526001600160a01b038316906000907fddf252ad1be2c89b69c2b068fc378daa952ba7f163c4a11628f55a4df523b3ef9060200160405180910390a36200022160008383620005d4565b60025490565b6000620003f28284620009fe565b9392505050565b8254600090819080156200045757856200041560018362000a3b565b815481106200043457634e487b7160e01b600052603260045260246000fd5b60009182526020909120015464010000000090046001600160e01b03166200045a565b60005b6001600160e01b031692506200047183858760201c565b9150600081118015620004c1575043866200048e60018462000a3b565b81548110620004ad57634e487b7160e01b600052603260045260246000fd5b60009182526020909120015463ffffffff16145b156200054157620004dd82620005ec60201b62000d361760201c565b86620004eb60018462000a3b565b815481106200050a57634e487b7160e01b600052603260045260246000fd5b9060005260206000200160000160046101000a8154816001600160e01b0302191690836001600160e01b03160217905550620005c6565b85604051806040016040528062000563436200065b60201b62000da31760201c565b63ffffffff1681526020016200058485620005ec60201b62000d361760201c565b6001600160e01b0390811690915282546001810184556000938452602093849020835194909301519091166401000000000263ffffffff909316929092179101555b50935093915050565b505050565b620005cf838383620006c260201b62000e081760201c565b60006001600160e01b03821115620006575760405162461bcd60e51b815260206004820152602760248201527f53616665436173743a2076616c756520646f65736e27742066697420696e20326044820152663234206269747360c81b60648201526084016200020c565b5090565b600063ffffffff821115620006575760405162461bcd60e51b815260206004820152602660248201527f53616665436173743a2076616c756520646f65736e27742066697420696e203360448201526532206269747360d01b60648201526084016200020c565b620006da838383620005cf60201b62000e3a1760201c565b6001600160a01b03838116600090815260086020526040808220548584168352912054620005cf92918216911683818314801590620007195750600081115b15620005cf576001600160a01b03831615620007a6576001600160a01b03831660009081526009602090815260408220829162000763919062000831901b62000e3f1785620003f9565b91509150846001600160a01b03166000805160206200297a83398151915283836040516200079b929190918252602082015260400190565b60405180910390a250505b6001600160a01b03821615620005cf576001600160a01b038216600090815260096020908152604082208291620007ea9190620003e4901b62000d2a1785620003f9565b91509150836001600160a01b03166000805160206200297a833981519152838360405162000822929190918252602082015260400190565b60405180910390a25050505050565b6000620003f2828462000a3b565b8280546200084d9062000a55565b90600052602060002090601f016020900481019282620008715760008555620008bc565b82601f106200088c57805160ff1916838001178555620008bc565b82800160010185558215620008bc579182015b82811115620008bc5782518255916020019190600101906200089f565b50620006579291505b80821115620006575760008155600101620008c5565b600082601f830112620008ec578081fd5b81516001600160401b038082111562000909576200090962000aa8565b604051601f8301601f19908116603f0116810190828211818310171562000934576200093462000aa8565b8160405283815260209250868385880101111562000950578485fd5b8491505b8382101562000973578582018301518183018401529082019062000954565b838211156200098457848385830101525b9695505050505050565b600080600060608486031215620009a3578283fd5b83516001600160401b0380821115620009ba578485fd5b620009c887838801620008db565b94506020860151915080821115620009de578384fd5b50620009ed86828701620008db565b925050604084015190509250925092565b6000821982111562000a145762000a1462000a92565b500190565b600081600019048311821515161562000a365762000a3662000a92565b500290565b60008282101562000a505762000a5062000a92565b500390565b600181811c9082168062000a6a57607f821691505b6020821081141562000a8c57634e487b7160e01b600052602260045260246000fd5b50919050565b634e487b7160e01b600052601160045260246000fd5b634e487b7160e01b600052604160045260246000fd5b60805160a05160c05160601c60e0516101005161012051611e6962000b116000396000611241015260006112900152600061126b015260006111c4015260006111ee015260006112180152611e696000f3fe608060405234801561001057600080fd5b506004361061018e5760003560e01c8063715018a6116100de578063a457c2d711610097578063d505accf11610071578063d505accf14610386578063dd62ed3e14610399578063f1127ed8146103ac578063f2fde38b146103e957600080fd5b8063a457c2d71461034d578063a9059cbb14610360578063c3cda5201461037357600080fd5b8063715018a6146102f35780637ecebe00146102fb5780638da5cb5b1461030e5780638e539e8c1461031f57806395d89b41146103325780639ab24eb01461033a57600080fd5b8063395093511161014b578063587cde1e11610125578063587cde1e1461024b5780635c19a95c1461028f5780636fcfff45146102a257806370a08231146102ca57600080fd5b806339509351146102105780633a46b1a81461022357806340c10f191461023657600080fd5b806306fdde0314610193578063095ea7b3146101b157806318160ddd146101d457806323b872dd146101e6578063313ce567146101f95780633644e51514610208575b600080fd5b61019b6103fc565b6040516101a89190611d11565b60405180910390f35b6101c46101bf366004611c3b565b61048e565b60405190151581526020016101a8565b6002545b6040519081526020016101a8565b6101c46101f4366004611b97565b6104a6565b604051601281526020016101a8565b6101d86104ca565b6101c461021e366004611c3b565b6104d9565b6101d8610231366004611c3b565b6104fb565b610249610244366004611c3b565b61057a565b005b610277610259366004611b4b565b6001600160a01b039081166000908152600860205260409020541690565b6040516001600160a01b0390911681526020016101a8565b61024961029d366004611b4b565b6105b2565b6102b56102b0366004611b4b565b6105bf565b60405163ffffffff90911681526020016101a8565b6101d86102d8366004611b4b565b6001600160a01b031660009081526020819052604090205490565b6102496105e7565b6101d8610309366004611b4b565b61061d565b6005546001600160a01b0316610277565b6101d861032d366004611cf9565b61063b565b61019b610697565b6101d8610348366004611b4b565b6106a6565b6101c461035b366004611c3b565b61073b565b6101c461036e366004611c3b565b6107b6565b610249610381366004611c64565b6107c4565b610249610394366004611bd2565b6108fa565b6101d86103a7366004611b65565b610a5e565b6103bf6103ba366004611cbb565b610a89565b60408051825163ffffffff1681526020928301516001600160e01b031692810192909252016101a8565b6102496103f7366004611b4b565b610b1b565b60606003805461040b90611de8565b80601f016020809104026020016040519081016040528092919081815260200182805461043790611de8565b80156104845780601f1061045957610100808354040283529160200191610484565b820191906000526020600020905b81548152906001019060200180831161046757829003601f168201915b5050505050905090565b60003361049c818585610e4b565b5060019392505050565b6000336104b4858285610f6f565b6104bf858585610fe3565b506001949350505050565b60006104d46111b7565b905090565b60003361049c8185856104ec8383610a5e565b6104f69190611d99565b610e4b565b60004382106105515760405162461bcd60e51b815260206004820152601f60248201527f4552433230566f7465733a20626c6f636b206e6f7420796574206d696e65640060448201526064015b60405180910390fd5b6001600160a01b038316600090815260096020526040902061057390836112de565b9392505050565b6005546001600160a01b031633146105a45760405162461bcd60e51b815260040161054890611d64565b6105ae82826113b7565b5050565b6105bc33826113c1565b50565b6001600160a01b0381166000908152600960205260408120546105e190610da3565b92915050565b6005546001600160a01b031633146106115760405162461bcd60e51b815260040161054890611d64565b61061b600061143a565b565b6001600160a01b0381166000908152600660205260408120546105e1565b600043821061068c5760405162461bcd60e51b815260206004820152601f60248201527f4552433230566f7465733a20626c6f636b206e6f7420796574206d696e6564006044820152606401610548565b6105e1600a836112de565b60606004805461040b90611de8565b6001600160a01b0381166000908152600960205260408120548015610728576001600160a01b03831660009081526009602052604090206106e8600183611dd1565b8154811061070657634e487b7160e01b600052603260045260246000fd5b60009182526020909120015464010000000090046001600160e01b031661072b565b60005b6001600160e01b03169392505050565b600033816107498286610a5e565b9050838110156107a95760405162461bcd60e51b815260206004820152602560248201527f45524332303a2064656372656173656420616c6c6f77616e63652062656c6f77604482015264207a65726f60d81b6064820152608401610548565b6104bf8286868403610e4b565b60003361049c818585610fe3565b834211156108145760405162461bcd60e51b815260206004820152601d60248201527f4552433230566f7465733a207369676e617475726520657870697265640000006044820152606401610548565b604080517fe48329057bfd03d55e49b547132e39cffd9c1820ad7b9d4c5307691425d15adf60208201526001600160a01b03881691810191909152606081018690526080810185905260009061088e906108869060a0016040516020818303038152906040528051906020012061148c565b8585856114da565b905061089981611502565b86146108e75760405162461bcd60e51b815260206004820152601960248201527f4552433230566f7465733a20696e76616c6964206e6f6e6365000000000000006044820152606401610548565b6108f181886113c1565b50505050505050565b8342111561094a5760405162461bcd60e51b815260206004820152601d60248201527f45524332305065726d69743a206578706972656420646561646c696e650000006044820152606401610548565b60007f6e71edae12b1b97f4d1f60370fef10105fa2faae0126114a169c64845d6126c98888886109798c611502565b6040805160208101969096526001600160a01b0394851690860152929091166060840152608083015260a082015260c0810186905260e00160405160208183030381529060405280519060200120905060006109d48261148c565b905060006109e4828787876114da565b9050896001600160a01b0316816001600160a01b031614610a475760405162461bcd60e51b815260206004820152601e60248201527f45524332305065726d69743a20696e76616c6964207369676e617475726500006044820152606401610548565b610a528a8a8a610e4b565b50505050505050505050565b6001600160a01b03918216600090815260016020908152604080832093909416825291909152205490565b60408051808201909152600080825260208201526001600160a01b0383166000908152600960205260409020805463ffffffff8416908110610adb57634e487b7160e01b600052603260045260246000fd5b60009182526020918290206040805180820190915291015463ffffffff8116825264010000000090046001600160e01b0316918101919091529392505050565b6005546001600160a01b03163314610b455760405162461bcd60e51b815260040161054890611d64565b6001600160a01b038116610baa5760405162461bcd60e51b815260206004820152602660248201527f4f776e61626c653a206e6577206f776e657220697320746865207a65726f206160448201526564647265737360d01b6064820152608401610548565b6105bc8161143a565b610bbd8282610c43565b6002546001600160e01b031015610c2f5760405162461bcd60e51b815260206004820152603060248201527f4552433230566f7465733a20746f74616c20737570706c79207269736b73206f60448201526f766572666c6f77696e6720766f74657360801b6064820152608401610548565b610c3d600a610d2a8361152a565b50505050565b6001600160a01b038216610c995760405162461bcd60e51b815260206004820152601f60248201527f45524332303a206d696e7420746f20746865207a65726f2061646472657373006044820152606401610548565b8060026000828254610cab9190611d99565b90915550506001600160a01b03821660009081526020819052604081208054839290610cd8908490611d99565b90915550506040518181526001600160a01b038316906000907fddf252ad1be2c89b69c2b068fc378daa952ba7f163c4a11628f55a4df523b3ef9060200160405180910390a36105ae600083836116cd565b60006105738284611d99565b60006001600160e01b03821115610d9f5760405162461bcd60e51b815260206004820152602760248201527f53616665436173743a2076616c756520646f65736e27742066697420696e20326044820152663234206269747360c81b6064820152608401610548565b5090565b600063ffffffff821115610d9f5760405162461bcd60e51b815260206004820152602660248201527f53616665436173743a2076616c756520646f65736e27742066697420696e203360448201526532206269747360d01b6064820152608401610548565b6001600160a01b03838116600090815260086020526040808220548584168352912054610e3a929182169116836116d8565b505050565b60006105738284611dd1565b6001600160a01b038316610ead5760405162461bcd60e51b8152602060048201526024808201527f45524332303a20617070726f76652066726f6d20746865207a65726f206164646044820152637265737360e01b6064820152608401610548565b6001600160a01b038216610f0e5760405162461bcd60e51b815260206004820152602260248201527f45524332303a20617070726f766520746f20746865207a65726f206164647265604482015261737360f01b6064820152608401610548565b6001600160a01b0383811660008181526001602090815260408083209487168084529482529182902085905590518481527f8c5be1e5ebec7d5bd14f71427d1e84f3dd0314c0f7b2291e5b200ac8c7c3b925910160405180910390a3505050565b6000610f7b8484610a5e565b90506000198114610c3d5781811015610fd65760405162461bcd60e51b815260206004820152601d60248201527f45524332303a20696e73756666696369656e7420616c6c6f77616e63650000006044820152606401610548565b610c3d8484848403610e4b565b6001600160a01b0383166110475760405162461bcd60e51b815260206004820152602560248201527f45524332303a207472616e736665722066726f6d20746865207a65726f206164604482015264647265737360d81b6064820152608401610548565b6001600160a01b0382166110a95760405162461bcd60e51b815260206004820152602360248201527f45524332303a207472616e7366657220746f20746865207a65726f206164647260448201526265737360e81b6064820152608401610548565b6001600160a01b038316600090815260208190526040902054818110156111215760405162461bcd60e51b815260206004820152602660248201527f45524332303a207472616e7366657220616d6f756e7420657863656564732062604482015265616c616e636560d01b6064820152608401610548565b6001600160a01b03808516600090815260208190526040808220858503905591851681529081208054849290611158908490611d99565b92505081905550826001600160a01b0316846001600160a01b03167fddf252ad1be2c89b69c2b068fc378daa952ba7f163c4a11628f55a4df523b3ef846040516111a491815260200190565b60405180910390a3610c3d8484846116cd565b6000306001600160a01b037f00000000000000000000000000000000000000000000000000000000000000001614801561121057507f000000000000000000000000000000000000000000000000000000000000000046145b1561123a57507f000000000000000000000000000000000000000000000000000000000000000090565b50604080517f00000000000000000000000000000000000000000000000000000000000000006020808301919091527f0000000000000000000000000000000000000000000000000000000000000000828401527f000000000000000000000000000000000000000000000000000000000000000060608301524660808301523060a0808401919091528351808403909101815260c0909201909252805191012090565b8154600090815b818110156113505760006112f98284611815565b90508486828154811061131c57634e487b7160e01b600052603260045260246000fd5b60009182526020909120015463ffffffff16111561133c5780925061134a565b611347816001611d99565b91505b506112e5565b81156113a25784611362600184611dd1565b8154811061138057634e487b7160e01b600052603260045260246000fd5b60009182526020909120015464010000000090046001600160e01b03166113a5565b60005b6001600160e01b031695945050505050565b6105ae8282610bb3565b6001600160a01b038281166000818152600860208181526040808420805485845282862054949093528787166001600160a01b03198416811790915590519190951694919391928592917f3134e8a2e6d97e929a7e54011ea5485d7d196dd5f0ba4d4ef95803e8e3fc257f9190a4610c3d8284836116d8565b600580546001600160a01b038381166001600160a01b0319831681179093556040519116919082907f8be0079c531659141344cd1fd0a4f28419497f9722a3daafe3b4186f6b6457e090600090a35050565b60006105e16114996111b7565b8360405161190160f01b6020820152602281018390526042810182905260009060620160405160208183030381529060405280519060200120905092915050565b60008060006114eb87878787611830565b915091506114f88161191d565b5095945050505050565b6001600160a01b03811660009081526006602052604090208054600181018255905b50919050565b8254600090819080156115835785611543600183611dd1565b8154811061156157634e487b7160e01b600052603260045260246000fd5b60009182526020909120015464010000000090046001600160e01b0316611586565b60005b6001600160e01b0316925061159f83858763ffffffff16565b91506000811180156115eb575043866115b9600184611dd1565b815481106115d757634e487b7160e01b600052603260045260246000fd5b60009182526020909120015463ffffffff16145b15611659576115f982610d36565b86611605600184611dd1565b8154811061162357634e487b7160e01b600052603260045260246000fd5b9060005260206000200160000160046101000a8154816001600160e01b0302191690836001600160e01b031602179055506116c4565b85604051806040016040528061166e43610da3565b63ffffffff16815260200161168285610d36565b6001600160e01b0390811690915282546001810184556000938452602093849020835194909301519091166401000000000263ffffffff909316929092179101555b50935093915050565b610e3a838383610e08565b816001600160a01b0316836001600160a01b0316141580156116fa5750600081115b15610e3a576001600160a01b03831615611788576001600160a01b0383166000908152600960205260408120819061173590610e3f8561152a565b91509150846001600160a01b03167fdec2bacdd2f05b59de34da9b523dff8be42e5e38e818c82fdb0bae774387a724838360405161177d929190918252602082015260400190565b60405180910390a250505b6001600160a01b03821615610e3a576001600160a01b038216600090815260096020526040812081906117be90610d2a8561152a565b91509150836001600160a01b03167fdec2bacdd2f05b59de34da9b523dff8be42e5e38e818c82fdb0bae774387a7248383604051611806929190918252602082015260400190565b60405180910390a25050505050565b60006118246002848418611db1565b61057390848416611d99565b6000807f7fffffffffffffffffffffffffffffff5d576e7357a4501ddfe92f46681b20a08311156118675750600090506003611914565b8460ff16601b1415801561187f57508460ff16601c14155b156118905750600090506004611914565b6040805160008082526020820180845289905260ff881692820192909252606081018690526080810185905260019060a0016020604051602081039080840390855afa1580156118e4573d6000803e3d6000fd5b5050604051601f1901519150506001600160a01b03811661190d57600060019250925050611914565b9150600090505b94509492505050565b600081600481111561193f57634e487b7160e01b600052602160045260246000fd5b14156119485750565b600181600481111561196a57634e487b7160e01b600052602160045260246000fd5b14156119b85760405162461bcd60e51b815260206004820152601860248201527f45434453413a20696e76616c6964207369676e617475726500000000000000006044820152606401610548565b60028160048111156119da57634e487b7160e01b600052602160045260246000fd5b1415611a285760405162461bcd60e51b815260206004820152601f60248201527f45434453413a20696e76616c6964207369676e6174757265206c656e677468006044820152606401610548565b6003816004811115611a4a57634e487b7160e01b600052602160045260246000fd5b1415611aa35760405162461bcd60e51b815260206004820152602260248201527f45434453413a20696e76616c6964207369676e6174757265202773272076616c604482015261756560f01b6064820152608401610548565b6004816004811115611ac557634e487b7160e01b600052602160045260246000fd5b14156105bc5760405162461bcd60e51b815260206004820152602260248201527f45434453413a20696e76616c6964207369676e6174757265202776272076616c604482015261756560f01b6064820152608401610548565b80356001600160a01b0381168114611b3557600080fd5b919050565b803560ff81168114611b3557600080fd5b600060208284031215611b5c578081fd5b61057382611b1e565b60008060408385031215611b77578081fd5b611b8083611b1e565b9150611b8e60208401611b1e565b90509250929050565b600080600060608486031215611bab578081fd5b611bb484611b1e565b9250611bc260208501611b1e565b9150604084013590509250925092565b600080600080600080600060e0888a031215611bec578283fd5b611bf588611b1e565b9650611c0360208901611b1e565b95506040880135945060608801359350611c1f60808901611b3a565b925060a0880135915060c0880135905092959891949750929550565b60008060408385031215611c4d578182fd5b611c5683611b1e565b946020939093013593505050565b60008060008060008060c08789031215611c7c578182fd5b611c8587611b1e565b95506020870135945060408701359350611ca160608801611b3a565b92506080870135915060a087013590509295509295509295565b60008060408385031215611ccd578182fd5b611cd683611b1e565b9150602083013563ffffffff81168114611cee578182fd5b809150509250929050565b600060208284031215611d0a578081fd5b5035919050565b6000602080835283518082850152825b81811015611d3d57858101830151858201604001528201611d21565b81811115611d4e5783604083870101525b50601f01601f1916929092016040019392505050565b6020808252818101527f4f776e61626c653a2063616c6c6572206973206e6f7420746865206f776e6572604082015260600190565b60008219821115611dac57611dac611e1d565b500190565b600082611dcc57634e487b7160e01b81526012600452602481fd5b500490565b600082821015611de357611de3611e1d565b500390565b600181811c90821680611dfc57607f821691505b6020821081141561152457634e487b7160e01b600052602260045260246000fd5b634e487b7160e01b600052601160045260246000fdfea2646970667358221220a8516a7ff52968685688ae78527463f35dc4737864092fe7d198698a3924e39764736f6c63430008040033dec2bacdd2f05b59de34da9b523dff8be42e5e38e818c82fdb0bae774387a724",
  "linkReferences": {},
  "deployedLinkReferences": {}
}