{
  "_format": "hh-sol-artifact-1",
  "contractName": "MaxGasPrice",
  "sourceName": "contracts/MaxGasPrice.sol",
  "abi": [
    {
      "anonymous": false,
      "inputs": [
        {
          "indexed": true,
          "internalType": "address",
          "name": "previousOwner",
          "type": "address"
        },
        {
          "indexed": true,
          "internalType": "address",
          "name": "newOwner",
          "type": "address"
        }
      ],
      "name": "OwnershipTransferred",
      "type": "event"
    },
    {
      "inputs": [],
      "name": "maxGasPrice",
      "outputs": [
        {
          "internalType": "uint256",
          "name": "",
          "type": "uint256"
        }
      ],
      "stateMutability": "view",
      "type": "function"
    },
    {
      "inputs": [],
      "name": "owner",
      "outputs": [
        {
          "internalType": "address",
          "name": "",
          "type": "address"
        }
      ],
      "stateMutability": "view",
      "type": "function"
    },
    {
      "inputs": [],
      "name": "renounceOwnership",
      "outputs": [],
      "stateMutability": "nonpayable",
      "type": "function"
    },
    {
      "inputs": [
        {
          "internalType": "uint256",
          "name": "newMax",
          "type": "uint256"
        }
      ],
      "name": "setMaxGasPrice",
      "outputs": [
        {
          "internalType": "bool",
          "name": "",
          "type": "bool"
        }
      ],
      "stateMutability": "nonpayable",
      "type": "function"
    },
    {
      "inputs": [
        {
          "internalType": "address",
          "name": "newOwner",
          "type": "address"
        }
      ],
      "name": "transferOwnership",
      "outputs": [],
      "stateMutability": "nonpayable",
      "type": "function"
    }
  ],
  "bytecode": "0x6080604052670de0b6b3a764000060015534801561001c57600080fd5b506100263361002b565b61007b565b600080546001600160a01b038381166001600160a01b0319831681178455604051919092169283917f8be0079c531659141344cd1fd0a4f28419497f9722a3daafe3b4186f6b6457e09190a35050565b6102e28061008a6000396000f3fe608060405234801561001057600080fd5b50600436106100575760003560e01c80633de39c111461005c578063715018a6146100785780638da5cb5b14610082578063d2fa635e1461009d578063f2fde38b146100c0575b600080fd5b61006560015481565b6040519081526020015b60405180910390f35b6100806100d3565b005b6000546040516001600160a01b03909116815260200161006f565b6100b06100ab36600461025f565b610112565b604051901515815260200161006f565b6100806100ce366004610231565b610146565b6000546001600160a01b031633146101065760405162461bcd60e51b81526004016100fd90610277565b60405180910390fd5b61011060006101e1565b565b600080546001600160a01b0316331461013d5760405162461bcd60e51b81526004016100fd90610277565b50600190815590565b6000546001600160a01b031633146101705760405162461bcd60e51b81526004016100fd90610277565b6001600160a01b0381166101d55760405162461bcd60e51b815260206004820152602660248201527f4f776e61626c653a206e6577206f776e657220697320746865207a65726f206160448201526564647265737360d01b60648201526084016100fd565b6101de816101e1565b50565b600080546001600160a01b038381166001600160a01b0319831681178455604051919092169283917f8be0079c531659141344cd1fd0a4f28419497f9722a3daafe3b4186f6b6457e09190a35050565b600060208284031215610242578081fd5b81356001600160a01b0381168114610258578182fd5b9392505050565b600060208284031215610270578081fd5b5035919050565b6020808252818101527f4f776e61626c653a2063616c6c6572206973206e6f7420746865206f776e657260408201526060019056fea2646970667358221220abe03956fa3c9a9396661887c28f2b3dd30b591fc3aba3f40362b789e46e4dff64736f6c63430008040033",
  "linkReferences": {},
  "deployedLinkReferences": {}
}