{
  "_format": "hh-sol-artifact-1",
  "contractName": "BondingCurveOffering",
  "sourceName": "contracts/BondingCurveOffering.sol",
  "abi": [
    {
      "inputs": [
        {
          "internalType": "address",
          "name": "_token_address",
          "type": "address"
        },
        {
          "internalType": "uint256",
          "name": "_token_decimals",
          "type": "uint256"
        },
        {
          "internalType": "uint256",
          "name": "_rate",
          "type": "uint256"
        },
        {
          "internalType": "uint256",
          "name": "_supply",
          "type": "uint256"
        },
        {
          "internalType": "address",
          "name": "_beneficiary",
          "type": "address"
        },
        {
          "internalType": "uint256",
          "name": "_taxRate",
          "type": "uint256"
        },
        {
          "internalType": "uint256",
          "name": "_connectorWeight",
          "type": "uint256"
        }
      ],
      "stateMutability": "nonpayable",
      "type": "constructor"
    },
    {
      "anonymous": false,
      "inputs": [
        {
          "indexed": true,
          "internalType": "address",
          "name": "previousOwner",
          "type": "address"
        },
        {
          "indexed": true,
          "internalType": "address",
          "name": "newOwner",
          "type": "address"
        }
      ],
      "name": "OwnershipTransferred",
      "type": "event"
    },
    {
      "anonymous": false,
      "inputs": [
        {
          "indexed": true,
          "internalType": "uint256",
          "name": "_isBuy",
          "type": "uint256"
        },
        {
          "indexed": true,
          "internalType": "uint256",
          "name": "_amount",
          "type": "uint256"
        },
        {
          "indexed": true,
          "internalType": "uint256",
          "name": "_token",
          "type": "uint256"
        }
      ],
      "name": "Trade",
      "type": "event"
    },
    {
      "inputs": [
        {
          "internalType": "uint256",
          "name": "_amount",
          "type": "uint256"
        }
      ],
      "name": "Purchase",
      "outputs": [],
      "stateMutability": "nonpayable",
      "type": "function"
    },
    {
      "inputs": [
        {
          "internalType": "uint256",
          "name": "_tokens",
          "type": "uint256"
        }
      ],
      "name": "Reimbursement",
      "outputs": [],
      "stateMutability": "nonpayable",
      "type": "function"
    },
    {
      "inputs": [],
      "name": "balance",
      "outputs": [
        {
          "internalType": "uint256",
          "name": "",
          "type": "uint256"
        }
      ],
      "stateMutability": "view",
      "type": "function"
    },
    {
      "inputs": [],
      "name": "beneficiary",
      "outputs": [
        {
          "internalType": "address",
          "name": "",
          "type": "address"
        }
      ],
      "stateMutability": "view",
      "type": "function"
    },
    {
      "inputs": [
        {
          "internalType": "uint256",
          "name": "_amount",
          "type": "uint256"
        }
      ],
      "name": "calculateBuyAmount",
      "outputs": [
        {
          "internalType": "uint256",
          "name": "_tokens",
          "type": "uint256"
        }
      ],
      "stateMutability": "view",
      "type": "function"
    },
    {
      "inputs": [
        {
          "internalType": "uint256",
          "name": "_supply",
          "type": "uint256"
        },
        {
          "internalType": "uint256",
          "name": "_connectorBalance",
          "type": "uint256"
        },
        {
          "internalType": "uint32",
          "name": "_connectorWeight",
          "type": "uint32"
        },
        {
          "internalType": "uint256",
          "name": "_depositAmount",
          "type": "uint256"
        }
      ],
      "name": "calculatePurchaseReturn",
      "outputs": [
        {
          "internalType": "uint256",
          "name": "",
          "type": "uint256"
        }
      ],
      "stateMutability": "view",
      "type": "function"
    },
    {
      "inputs": [
        {
          "internalType": "uint256",
          "name": "_tokens",
          "type": "uint256"
        }
      ],
      "name": "calculateReimbursement",
      "outputs": [
        {
          "internalType": "uint256",
          "name": "_amount",
          "type": "uint256"
        }
      ],
      "stateMutability": "view",
      "type": "function"
    },
    {
      "inputs": [
        {
          "internalType": "uint256",
          "name": "_supply",
          "type": "uint256"
        },
        {
          "internalType": "uint256",
          "name": "_connectorBalance",
          "type": "uint256"
        },
        {
          "internalType": "uint32",
          "name": "_connectorWeight",
          "type": "uint32"
        },
        {
          "internalType": "uint256",
          "name": "_sellAmount",
          "type": "uint256"
        }
      ],
      "name": "calculateSaleReturn",
      "outputs": [
        {
          "internalType": "uint256",
          "name": "",
          "type": "uint256"
        }
      ],
      "stateMutability": "view",
      "type": "function"
    },
    {
      "inputs": [],
      "name": "collateralRate",
      "outputs": [
        {
          "internalType": "uint256",
          "name": "",
          "type": "uint256"
        }
      ],
      "stateMutability": "view",
      "type": "function"
    },
    {
      "inputs": [],
      "name": "connectorWeight",
      "outputs": [
        {
          "internalType": "uint256",
          "name": "",
          "type": "uint256"
        }
      ],
      "stateMutability": "view",
      "type": "function"
    },
    {
      "inputs": [],
      "name": "maxGasPrice",
      "outputs": [
        {
          "internalType": "uint256",
          "name": "",
          "type": "uint256"
        }
      ],
      "stateMutability": "view",
      "type": "function"
    },
    {
      "inputs": [],
      "name": "owner",
      "outputs": [
        {
          "internalType": "address",
          "name": "",
          "type": "address"
        }
      ],
      "stateMutability": "view",
      "type": "function"
    },
    {
      "inputs": [],
      "name": "rate",
      "outputs": [
        {
          "internalType": "uint256",
          "name": "",
          "type": "uint256"
        }
      ],
      "stateMutability": "view",
      "type": "function"
    },
    {
      "inputs": [],
      "name": "renounceOwnership",
      "outputs": [],
      "stateMutability": "nonpayable",
      "type": "function"
    },
    {
      "inputs": [],
      "name": "scale",
      "outputs": [
        {
          "internalType": "uint256",
          "name": "",
          "type": "uint256"
        }
      ],
      "stateMutability": "view",
      "type": "function"
    },
    {
      "inputs": [
        {
          "internalType": "uint256",
          "name": "newMax",
          "type": "uint256"
        }
      ],
      "name": "setMaxGasPrice",
      "outputs": [
        {
          "internalType": "bool",
          "name": "",
          "type": "bool"
        }
      ],
      "stateMutability": "nonpayable",
      "type": "function"
    },
    {
      "inputs": [],
      "name": "supply",
      "outputs": [
        {
          "internalType": "uint256",
          "name": "",
          "type": "uint256"
        }
      ],
      "stateMutability": "view",
      "type": "function"
    },
    {
      "inputs": [
        {
          "internalType": "uint256",
          "name": "_amount",
          "type": "uint256"
        }
      ],
      "name": "tax",
      "outputs": [
        {
          "internalType": "uint256",
          "name": "_tax",
          "type": "uint256"
        }
      ],
      "stateMutability": "view",
      "type": "function"
    },
    {
      "inputs": [
        {
          "internalType": "address",
          "name": "newOwner",
          "type": "address"
        }
      ],
      "name": "transferOwnership",
      "outputs": [],
      "stateMutability": "nonpayable",
      "type": "function"
    },
    {
      "inputs": [
        {
          "internalType": "address",
          "name": "_beneficiary",
          "type": "address"
        }
      ],
      "name": "updateBeneficiary",
      "outputs": [],
      "stateMutability": "nonpayable",
      "type": "function"
    },
    {
      "inputs": [],
      "name": "version",
      "outputs": [
        {
          "internalType": "string",
          "name": "",
          "type": "string"
        }
      ],
      "stateMutability": "view",
      "type": "function"
    }
  ],
  "bytecode": "0x60c06040526003608081905262302e3360e81b60a0908152620000269160009190620008ab565b50670de0b6b3a764000060825564e8d4a510006086553480156200004957600080fd5b5060405162003464380380620034648339810160408190526200006c916200096e565b6001641c35fedd1560601b036021556001646c3390ecc9605e1b036022556001640cf801476160611b0360235560016431bdb23e1d605f1b0360245560016502fb1d8fe083605b1b0360255560016505b771955b37605a1b036026556001650af67a93bb5160591b0360275560016515060c256cb360581b036028556001651428a2f98d7360581b036029556001654d515663970960561b03602a55600165944620b0e70f60551b03602b55600166011c592761c66760541b03602c5560016602214d10d014eb60531b03602d55600166020ade36b7dbef60531b03602e5560016603eab73b3bbfe360521b03602f556001660782ee3593f6d760511b036030556001661ccf4b44bb4821604f1b0360315560016606e7f88ad8a77760511b0360325560016669f3d1c921891d604d1b03603355600166cb2ff529eb71e5604c1b03603455600166c2d415c3db974b604c1b0360355560016702eb40f9f620fda7604a1b0360365560016705990681d961a1eb60491b03603755600167055e12902701414760491b0360385560016714962dee9dc9764160471b0360395560016704ef57b9b560fab560491b03603a5560016712ed7b32a58f552b60471b03603b556001679131271922eaa60760441b03603c556001678b380f3558668c4760441b03603d556001680215f77c045fbe885760421b03603e556001600160831b03603f556001670f577eded5773a1160471b036040556001680eb5ec597592befbf5603f1b036041556001681c35fedd14b861eb05603e1b036042556001683619c87664579bc94b603d1b0360435560016867c00a3b07ffc01fd7603c1b03604455600168c6f6c8f8739773a7a5603b1b03604555600168bec763f8209b7a72b1603b1b0360465560016902dbb8caad9b7097b91b60391b03604755600169057b3d49dda84556d6f760381b03604855600169054183095b2c8ececf3160381b036049556001690a14517cc6b9457111ef60371b03604a5560016913545598e5c23276ccf160361b03604b556001692511882c39c3adea96ff60351b03604c55600169471649d87199aa99075760341b03604d557004429a21a029d4c1457cfbffffffffffff604e55700415bc6d6fb7dd71af2cb3ffffffffffff604f557003eab73b3bbfe282243ce1ffffffffffff6050557003c1771ac9fb6b4c18e229ffffffffffff605155700399e96897690418f785257fffffffffff605255700373fc456c53bb779bf0ea9fffffffffff60535570034f9e8e490c48e67e6ab8bfffffffffff60545570032cbfd4a7adc790560b3337ffffffffff60555570030b50570f6e5d2acca94613ffffffffff6056557002eb40f9f620fda6b56c2861ffffffffff6057557002cc8340ecb0d0f520a6af58ffffffffff6058557002af09481380a0a35cf1ba02ffffffffff605955700292c5bdd3b92ec810287b1b3fffffffff605a55700277abdcdab07d5a77ac6d6b9fffffffff605b5570025daf6654b1eaa55fd64df5efffffffff605c55700244c49c648baa98192dce88b7ffffffff605d5570022ce03cd5619a311b2471268bffffffff605e55700215f77c045fbe885654a44a0fffffffff605f556001600160811b036060557001eaefdbdaaee7421fc4d3ede5ffffffff6061557001d6bd8b2eb257df7e8ca57b09bfffffff6062557001c35fedd14b861eb0443f7f133fffffff6063557001b0ce43b322bcde4a56e8ada5afffffff60645570019f0028ec1fff007f5a195a39dfffffff60655570018ded91f0e72ee74f49b15ba527ffffff60665570017d8ec7f04136f4e5615fd41a63ffffff60675570016ddc6556cdb84bdc8d12d22e6fffffff60685570015ecf52776a1155b5bd8395814f7fffff60695570015060c256cb23b3b3cc3754cf40ffffff606a557001428a2f98d728ae223ddab715be3fffff606b5570013545598e5c23276ccf0ede68034fffff606c557001288c4161ce1d6f54b7f61081194fffff606d5570011c592761c666aa641d5a01a40f17ffff606e55700110a688680a7530515f3e6e6cfdcdffff606f557001056f1b5bedf75c6bcb2ce8aed428ffff6070556ffaadceceeff8a0890f3875f008277fff6071556ff05dc6b27edad306388a600f6ba0bfff6072556fe67a5a25da41063de1495d5b18cdbfff6073556fdcff115b14eedde6fc3aa5353f2e4fff6074556fd3e7a3924312399f9aae2e0f868f8fff6075556fcb2ff529eb71e41582cccd5a1ee26fff6076556fc2d415c3db974ab32a51840c0b67edff6077556fbad03e7d883f69ad5b0a186184e06bff6078556fb320d03b2c343d4829abd6075f0cc5ff6079556fabc25204e02828d73c6e80bcdb1a95bf607a556fa4b16f74ee4bb2040a1ec6c15fbbf2df607b556f9deaf736ac1f569deb1b5ae3f36c130f607c556f976bd9952c7aa957f5937d790ef65037607d556f9131271922eaa6064b73a22d0bd4f2bf607e556f8b380f3558668c46c91c49a2f8e967b9607f556f857ddf0117efa215952912839f6473e66080558381620007a23362000859565b608654620007b1908362000ae9565b6085819055608355608455506087805473c2132d05d31c914a87c6611c10748aeb04b58e8f6001600160a01b0319918216179091556088805482166001600160a01b038a811691909117909155608980549092169085161790556200081860068762000b0b565b6200082590600a62000a1e565b608b81905562000836908662000ae9565b608a556200084882620f424062000b0b565b608c555062000b7895505050505050565b608180546001600160a01b038381166001600160a01b0319831681179093556040519116919082907f8be0079c531659141344cd1fd0a4f28419497f9722a3daafe3b4186f6b6457e090600090a35050565b828054620008b99062000b25565b90600052602060002090601f016020900481019282620008dd576000855562000928565b82601f10620008f857805160ff191683800117855562000928565b8280016001018555821562000928579182015b82811115620009285782518255916020019190600101906200090b565b50620009369291506200093a565b5090565b5b808211156200093657600081556001016200093b565b80516001600160a01b03811681146200096957600080fd5b919050565b600080600080600080600060e0888a03121562000989578283fd5b620009948862000951565b9650602088015195506040880151945060608801519350620009b96080890162000951565b925060a0880151915060c0880151905092959891949750929550565b600181815b8085111562000a16578160001904821115620009fa57620009fa62000b62565b8085161562000a0857918102915b93841c9390800290620009da565b509250929050565b600062000a2c838362000a33565b9392505050565b60008262000a445750600162000ae3565b8162000a535750600062000ae3565b816001811462000a6c576002811462000a775762000a97565b600191505062000ae3565b60ff84111562000a8b5762000a8b62000b62565b50506001821b62000ae3565b5060208310610133831016604e8410600b841016171562000abc575081810a62000ae3565b62000ac88383620009d5565b806000190482111562000adf5762000adf62000b62565b0290505b92915050565b600081600019048311821515161562000b065762000b0662000b62565b500290565b60008282101562000b205762000b2062000b62565b500390565b600181811c9082168062000b3a57607f821691505b6020821081141562000b5c57634e487b7160e01b600052602260045260246000fd5b50919050565b634e487b7160e01b600052601160045260246000fd5b6128dc8062000b886000396000f3fe608060405234801561001057600080fd5b50600436106101375760003560e01c8063715018a6116100b8578063b69ef8a81161007c578063b69ef8a814610249578063d2fa635e14610252578063e2aeb2ae14610275578063eea402e314610288578063f2fde38b1461029b578063f51e181a146102ae57600080fd5b8063715018a61461020157806382639852146102095780638da5cb5b1461021c5780639fc0f2ad1461022d578063b586c9a21461024057600080fd5b806338af3eed116100ff57806338af3eed1461019c5780633de39c11146101c757806349f9b0f7146101d057806354fd4d50146101e357806358a6be1c146101f857600080fd5b8063047fc9aa1461013c5780630aaffd2a146101585780631ae3d5ff1461016d57806329a00e7c146101805780632c4e722e14610193575b600080fd5b61014560855481565b6040519081526020015b60405180910390f35b61016b6101663660046125fd565b6102b7565b005b61014561017b366004612644565b610381565b61014561018e366004612674565b6103b6565b610145608a5481565b6089546101af906001600160a01b031681565b6040516001600160a01b03909116815260200161014f565b61014560825481565b6101456101de366004612674565b610481565b6101eb61055e565b60405161014f91906126ba565b610145608c5481565b61016b6105ec565b610145610217366004612644565b610622565b6081546001600160a01b03166101af565b61016b61023b366004612644565b610635565b61014560845481565b61014560835481565b610265610260366004612644565b610988565b604051901515815260200161014f565b61016b610283366004612644565b6109be565b610145610296366004612644565b610da7565b61016b6102a93660046125fd565b610db2565b610145608b5481565b6081546001600160a01b031633146102ea5760405162461bcd60e51b81526004016102e19061270d565b60405180910390fd5b6089546001600160a01b038281169116141561035f5760405162461bcd60e51b815260206004820152602e60248201527f546865206e65772062656e65666963696172792061646472657373206d75737460448201526d20626520646966666572656e742160901b60648201526084016102e1565b608980546001600160a01b0319166001600160a01b0392909216919091179055565b6000608a5461038f83610e4d565b608a5461039c90856127b5565b6103a691906127d4565b6103b0919061277f565b92915050565b600080851180156103c75750600084115b80156103d9575060008363ffffffff16115b80156103ee5750620f424063ffffffff841611155b6103f757600080fd5b8161040457506000610479565b63ffffffff8316620f4240141561043057610429846104238785610e78565b90610e8b565b9050610479565b6000808061043e8588610e97565b905061044f818888620f4240610ea3565b9093509150600060ff83166104648a86610e78565b901c905061047289826127d4565b9450505050505b949350505050565b600080851180156104925750600084115b80156104a4575060008363ffffffff16115b80156104b95750620f424063ffffffff841611155b80156104c55750848211155b6104ce57600080fd5b816104db57506000610479565b848214156104ea575082610479565b63ffffffff8316620f4240141561050957610429856104238685610e78565b6000808061051785896127d4565b90506105288882620f424089610ea3565b909350915060006105398885610e78565b905060ff831688901b610550856104238484610ff1565b9a9950505050505050505050565b6000805461056b9061282b565b80601f01602080910402602001604051908101604052809291908181526020018280546105979061282b565b80156105e45780601f106105b9576101008083540402835291602001916105e4565b820191906000526020600020905b8154815290600101906020018083116105c757829003601f168201915b505050505081565b6081546001600160a01b031633146106165760405162461bcd60e51b81526004016102e19061270d565b6106206000610ffd565b565b60006103b061063083610e4d565b61104f565b80600081116106865760405162461bcd60e51b815260206004820152601c60248201527f596f75206e65656420746f2073656e6420736f6d6520746f6b656e730000000060448201526064016102e1565b6088546040516370a0823160e01b815233600482015282916001600160a01b0316906370a082319060240160206040518083038186803b1580156106c957600080fd5b505afa1580156106dd573d6000803e3d6000fd5b505050506040513d601f19601f82011682018060405250810190610701919061265c565b10156107595760405162461bcd60e51b815260206004820152602160248201527f4e6f7420656e6f75676820746f6b656e7320696e20796f7572206163636f756e6044820152601d60fa1b60648201526084016102e1565b600061076482610da7565b9050600081116107c15760405162461bcd60e51b815260206004820152602260248201527f546865207175616e7469747920796f752073656c6c20697320746f6f20736d616044820152611b1b60f21b60648201526084016102e1565b608a546107ce908261277f565b6087546040516370a0823160e01b81523060048201526001600160a01b03909116906370a082319060240160206040518083038186803b15801561081157600080fd5b505afa158015610825573d6000803e3d6000fd5b505050506040513d601f19601f82011682018060405250810190610849919061265c565b10156108975760405162461bcd60e51b815260206004820152601a60248201527f55534454206973206e6f7420656e6f75676820666f7220796f7500000000000060448201526064016102e1565b6088546108ae906001600160a01b03163385611063565b60006108b98461113c565b90506000608a54826108cb919061277f565b60875460405163a9059cbb60e01b8152336004820152602481018390529192506001600160a01b03169063a9059cbb90604401602060405180830381600087803b15801561091857600080fd5b505af115801561092c573d6000803e3d6000fd5b505050506040513d601f19601f820116820180604052508101906109509190612624565b50848160007f1944290154176f4c0b5d8339910ce66de9f4a57a21c3737bb4b212644c73577660405160405180910390a45050505050565b6081546000906001600160a01b031633146109b55760405162461bcd60e51b81526004016102e19061270d565b50608255600190565b8060008111610a0f5760405162461bcd60e51b815260206004820152601a60248201527f596f75206e65656420746f2073656e6420736f6d65205553445400000000000060448201526064016102e1565b608754604051636eb1769f60e11b815233600482015230602482015282916001600160a01b03169063dd62ed3e9060440160206040518083038186803b158015610a5857600080fd5b505afa158015610a6c573d6000803e3d6000fd5b505050506040513d601f19601f82011682018060405250810190610a90919061265c565b1015610af05760405162461bcd60e51b815260206004820152602960248201527f4e6f7420656e6f756768205553445420616c6c6f77616e636520696e20796f756044820152681c881858d8dbdd5b9d60ba1b60648201526084016102e1565b6000610afb82610622565b905060008111610b575760405162461bcd60e51b815260206004820152602160248201527f546865207175616e7469747920796f752062757920697320746f6f20736d616c6044820152601b60fa1b60648201526084016102e1565b6088546040516370a0823160e01b815230600482015282916001600160a01b0316906370a082319060240160206040518083038186803b158015610b9a57600080fd5b505afa158015610bae573d6000803e3d6000fd5b505050506040513d601f19601f82011682018060405250810190610bd2919061265c565b1015610c205760405162461bcd60e51b815260206004820152601b60248201527f546f6b656e206973206e6f7420656e6f75676820666f7220796f75000000000060448201526064016102e1565b608754610c37906001600160a01b03163385611063565b6000610c4a610c4585610e4d565b611161565b60885460405163a9059cbb60e01b8152336004820152602481018390529192506001600160a01b03169063a9059cbb90604401602060405180830381600087803b158015610c9757600080fd5b505af1158015610cab573d6000803e3d6000fd5b505050506040513d601f19601f82011682018060405250810190610ccf9190612624565b506087546089546001600160a01b039182169163a9059cbb9116610cf287610381565b6040516001600160e01b031960e085901b1681526001600160a01b0390921660048301526024820152604401602060405180830381600087803b158015610d3857600080fd5b505af1158015610d4c573d6000803e3d6000fd5b505050506040513d601f19601f82011682018060405250810190610d709190612624565b50808460017f1944290154176f4c0b5d8339910ce66de9f4a57a21c3737bb4b212644c73577660405160405180910390a450505050565b60006103b08261118d565b6081546001600160a01b03163314610ddc5760405162461bcd60e51b81526004016102e19061270d565b6001600160a01b038116610e415760405162461bcd60e51b815260206004820152602660248201527f4f776e61626c653a206e6577206f776e657220697320746865207a65726f206160448201526564647265737360d01b60648201526084016102e1565b610e4a81610ffd565b50565b600081620f4240608a54610e61919061277f565b608c54610e6e91906127b5565b6103b091906127b5565b6000610e8482846127b5565b9392505050565b6000610e84828461277f565b6000610e848284612742565b600080600160811b8610610ec757634e487b7160e01b600052600160045260246000fd5b84861015610f175760405162461bcd60e51b815260206004820152601c60248201527f4261736573203c203120617265206e6f7420737570706f727465642e0000000060448201526064016102e1565b60008086610f296001607f1b8a6127b5565b610f33919061277f565b905070015bf0a8b1457695355fb8ac404e7a79e3811015610f5e57610f57816111a1565b9150610f6a565b610f678161171a565b91505b60008563ffffffff168763ffffffff1684610f8591906127b5565b610f8f919061277f565b9050600160831b811015610fb457610fa681611809565b607f94509450505050610fe8565b6000610fbf82611e34565b9050610fdb610fcf82607f6127eb565b60ff1683901c82611f27565b95509350610fe892505050565b94509492505050565b6000610e8482846127d4565b608180546001600160a01b038381166001600160a01b0319831681179093556040519116919082907f8be0079c531659141344cd1fd0a4f28419497f9722a3daafe3b4186f6b6457e090600090a35050565b60006103b0608554608354608454856103b6565b6040516323b872dd60e01b81526001600160a01b03838116600483015230602483015260448201839052600091908516906323b872dd90606401602060405180830381600087803b1580156110b757600080fd5b505af11580156110cb573d6000803e3d6000fd5b505050506040513d601f19601f820116820180604052508101906110ef9190612624565b9050806111365760405162461bcd60e51b8152602060048201526015602482015274151bdad95b881d1c985b9cd9995c8819985a5b1959605a1b60448201526064016102e1565b50505050565b6000806111488361118d565b6083549091506111589082610ff1565b60835592915050565b60008061116d8361104f565b60855490915061117d9082610e97565b6085556083546111589084610e97565b60006103b060855460835460845485610481565b6000808080806fd3094c70f034de4b96ff7d5b6f99fcd886106111fa576111cc6001607e1b85612742565b93506fd3094c70f034de4b96ff7d5b6f99fcd86111ed6001607f1b886127b5565b6111f7919061277f565b95505b6fa45af1e1f40c333b3de1db4dd55f29a7861061124d5761121f6001607d1b85612742565b93506fa45af1e1f40c333b3de1db4dd55f29a76112406001607f1b886127b5565b61124a919061277f565b95505b6f910b022db7ae67ce76b441c27035c6a186106112a0576112726001607c1b85612742565b93506f910b022db7ae67ce76b441c27035c6a16112936001607f1b886127b5565b61129d919061277f565b95505b6f88415abbe9a76bead8d00cf112e4d4a886106112f3576112c56001607b1b85612742565b93506f88415abbe9a76bead8d00cf112e4d4a86112e66001607f1b886127b5565b6112f0919061277f565b95505b6f84102b00893f64c705e841d5d4064bd38610611346576113186001607a1b85612742565b93506f84102b00893f64c705e841d5d4064bd36113396001607f1b886127b5565b611343919061277f565b95505b6f8204055aaef1c8bd5c3259f4822735a286106113995761136b600160791b85612742565b93506f8204055aaef1c8bd5c3259f4822735a261138c6001607f1b886127b5565b611396919061277f565b95505b6f810100ab00222d861931c15e39b44e9986106113ec576113be600160781b85612742565b93506f810100ab00222d861931c15e39b44e996113df6001607f1b886127b5565b6113e9919061277f565b95505b6f808040155aabbbe9451521693554f733861061143f57611411600160771b85612742565b93506f808040155aabbbe9451521693554f7336114326001607f1b886127b5565b61143c919061277f565b95505b61144d6001607f1b876127d4565b92508291506001607f1b61146183806127b5565b61146b919061277f565b9050600160801b61147c84826127d4565b61148690846127b5565b611490919061277f565b61149a9085612742565b93506001607f1b6114ab82846127b5565b6114b5919061277f565b9150600160811b6114d6846faaaaaaaaaaaaaaaaaaaaaaaaaaaaaaaa6127d4565b6114e090846127b5565b6114ea919061277f565b6114f49085612742565b93506001607f1b61150582846127b5565b61150f919061277f565b9150600360801b611530846f999999999999999999999999999999996127d4565b61153a90846127b5565b611544919061277f565b61154e9085612742565b93506001607f1b61155f82846127b5565b611569919061277f565b9150600160821b61158a846f924924924924924924924924924924926127d4565b61159490846127b5565b61159e919061277f565b6115a89085612742565b93506001607f1b6115b982846127b5565b6115c3919061277f565b9150600560801b6115e4846f8e38e38e38e38e38e38e38e38e38e38e6127d4565b6115ee90846127b5565b6115f8919061277f565b6116029085612742565b93506001607f1b61161382846127b5565b61161d919061277f565b9150600360811b61163e846f8ba2e8ba2e8ba2e8ba2e8ba2e8ba2e8b6127d4565b61164890846127b5565b611652919061277f565b61165c9085612742565b93506001607f1b61166d82846127b5565b611677919061277f565b9150600760801b611698846f89d89d89d89d89d89d89d89d89d89d896127d4565b6116a290846127b5565b6116ac919061277f565b6116b69085612742565b93506001607f1b6116c782846127b5565b6116d1919061277f565b9150600160831b6116f2846f888888888888888888888888888888886127d4565b6116fc90846127b5565b611706919061277f565b6117109085612742565b9695505050505050565b60008082600160801b811061175f57600061174161173c6001607f1b8461277f565b61258e565b60ff811692831c9290915061175b906001607f1b906127b5565b9250505b6001607f1b8111156117d457607f5b60ff8116156117d2576001607f1b61178683806127b5565b611790919061277f565b9150600160801b82106117c257600191821c916117ad90826127eb565b60ff166001901b836117bf9190612742565b92505b6117cb8161280e565b905061176e565b505b6f05b9de1d10bf4103d647b0955897ba806117ff6f03f80fe03f80fe03f80fe03f80fe03f8846127b5565b610479919061277f565b600080808061181c6001607c1b86612866565b91508190506001607f1b61183082806127b5565b61183a919061277f565b905061184e816710e1b3be415a00006127b5565b6118589084612742565b92506001607f1b61186983836127b5565b611873919061277f565b9050611887816705a0913f6b1e00006127b5565b6118919084612742565b92506001607f1b6118a283836127b5565b6118ac919061277f565b90506118c081670168244fdac780006127b5565b6118ca9084612742565b92506001607f1b6118db83836127b5565b6118e5919061277f565b90506118f881664807432bc180006127b5565b6119029084612742565b92506001607f1b61191383836127b5565b61191d919061277f565b905061193081660c0135dca040006127b5565b61193a9084612742565b92506001607f1b61194b83836127b5565b611955919061277f565b9050611968816601b707b1cdc0006127b5565b6119729084612742565b92506001607f1b61198383836127b5565b61198d919061277f565b905061199f816536e0f639b8006127b5565b6119a99084612742565b92506001607f1b6119ba83836127b5565b6119c4919061277f565b90506119d681650618fee9f8006127b5565b6119e09084612742565b92506001607f1b6119f183836127b5565b6119fb919061277f565b9050611a0c81649c197dcc006127b5565b611a169084612742565b92506001607f1b611a2783836127b5565b611a31919061277f565b9050611a4281640e30dce4006127b5565b611a4c9084612742565b92506001607f1b611a5d83836127b5565b611a67919061277f565b9050611a788164012ebd13006127b5565b611a829084612742565b92506001607f1b611a9383836127b5565b611a9d919061277f565b9050611aad816317499f006127b5565b611ab79084612742565b92506001607f1b611ac883836127b5565b611ad2919061277f565b9050611ae2816301a9d4806127b5565b611aec9084612742565b92506001607f1b611afd83836127b5565b611b07919061277f565b9050611b1681621c63806127b5565b611b209084612742565b92506001607f1b611b3183836127b5565b611b3b919061277f565b9050611b4a816201c6386127b5565b611b549084612742565b92506001607f1b611b6583836127b5565b611b6f919061277f565b9050611b7d81611ab86127b5565b611b879084612742565b92506001607f1b611b9883836127b5565b611ba2919061277f565b9050611bb08161017c6127b5565b611bba9084612742565b92506001607f1b611bcb83836127b5565b611bd5919061277f565b9050611be28160146127b5565b611bec9084612742565b92506001607f1b611bfd83836127b5565b611c07919061277f565b9050611c148160016127b5565b611c1e9084612742565b92506001607f1b82611c386721c3677c82b400008661277f565b611c429190612742565b611c4c9190612742565b92506001607c1b851615611c945770018ebef9eac820ae8682b9793ac6d1e776611c87847001c3d6a24ed82218787d624d3e5eba95f96127b5565b611c91919061277f565b92505b6001607d1b851615611cda577001368b2fc6f9609fe7aceb46aa619baed4611ccd8470018ebef9eac820ae8682b9793ac6d1e7786127b5565b611cd7919061277f565b92505b6001607e1b851615611d1f576fbc5ab1b16779be3575bd8f0520a9f21f611d12847001368b2fc6f9609fe7aceb46aa619baed56127b5565b611d1c919061277f565b92505b6001607f1b851615611d63576f454aaa8efe072e7f6ddbab84b40a55c9611d56846fbc5ab1b16779be3575bd8f0520a9f21e6127b5565b611d60919061277f565b92505b600160801b851615611da7576f0960aadc109e7a3bf4578099615711ea611d9a846f454aaa8efe072e7f6ddbab84b40a55c56127b5565b611da4919061277f565b92505b600160811b851615611dea576e2bf84208204f5977f9a8cf01fdce3d611ddd846f0960aadc109e7a3bf4578099615711d76127b5565b611de7919061277f565b92505b600160821b851615611e2b576d03c6ab775dd0b95b4cbee7e65d11611e1e846e2bf84208204f5977f9a8cf01fdc3076127b5565b611e28919061277f565b92505b50909392505050565b60006020607f5b60ff8116611e4a83600161275a565b60ff161015611eab5760006002611e61838561275a565b611e6b9190612793565b90508460018260ff1660808110611e9257634e487b7160e01b600052603260045260246000fd5b015410611ea157809250611ea5565b8091505b50611e3b565b8360018260ff1660808110611ed057634e487b7160e01b600052603260045260246000fd5b015410611ede579392505050565b8360018360ff1660808110611f0357634e487b7160e01b600052603260045260246000fd5b015410611f11575092915050565b634e487b7160e01b600052600160045260246000fd5b6000828160ff8416611f3983806127b5565b901c9150611f57826f03442c4e6074a82f1797f72ac00000006127b5565b611f619082612742565b905060ff8416611f7186846127b5565b901c9150611f8f826f0116b96f757c380fb287fd0e400000006127b5565b611f999082612742565b905060ff8416611fa986846127b5565b901c9150611fc6826e45ae5bdd5f0e03eca1ff43900000006127b5565b611fd09082612742565b905060ff8416611fe086846127b5565b901c9150611ffd826e0defabf91302cd95b9ffda500000006127b5565b6120079082612742565b905060ff841661201786846127b5565b901c9150612034826e02529ca9832b22439efff9b80000006127b5565b61203e9082612742565b905060ff841661204e86846127b5565b901c915061206a826d54f1cf12bd04e516b6da880000006127b5565b6120749082612742565b905060ff841661208486846127b5565b901c91506120a0826d0a9e39e257a09ca2d6db510000006127b5565b6120aa9082612742565b905060ff84166120ba86846127b5565b901c91506120d6826d012e066e7b839fa050c3090000006127b5565b6120e09082612742565b905060ff84166120f086846127b5565b901c915061210b826c1e33d7d926c329a1ad1a8000006127b5565b6121159082612742565b905060ff841661212586846127b5565b901c9150612140826c02bee513bdb4a6b19b5f8000006127b5565b61214a9082612742565b905060ff841661215a86846127b5565b901c9150612174826b3a9316fa79b88eccf2a000006127b5565b61217e9082612742565b905060ff841661218e86846127b5565b901c91506121a8826b048177ebe1fa8123752000006127b5565b6121b29082612742565b905060ff84166121c286846127b5565b901c91506121db826a5263fe90242dcbacf000006127b5565b6121e59082612742565b905060ff84166121f586846127b5565b901c915061220e826a057e22099c030d941000006127b5565b6122189082612742565b905060ff841661222886846127b5565b901c9150612240826957e22099c030d94100006127b5565b61224a9082612742565b905060ff841661225a86846127b5565b901c91506122728269052b6b545699763100006127b5565b61227c9082612742565b905060ff841661228c86846127b5565b901c91506122a382684985f67696bf7480006127b5565b6122ad9082612742565b905060ff84166122bd86846127b5565b901c91506122d4826803dea12ea99e4980006127b5565b6122de9082612742565b905060ff84166122ee86846127b5565b901c9150612304826731880f2214b6e0006127b5565b61230e9082612742565b905060ff841661231e86846127b5565b901c91506123348267025bcff56eb360006127b5565b61233e9082612742565b905060ff841661234e86846127b5565b901c915061236382661b722e10ab10006127b5565b61236d9082612742565b905060ff841661237d86846127b5565b901c9150612392826601317c700770006127b5565b61239c9082612742565b905060ff84166123ac86846127b5565b901c91506123c082650cba84aafa006127b5565b6123ca9082612742565b905060ff84166123da86846127b5565b901c91506123ed826482573a0a006127b5565b6123f79082612742565b905060ff841661240786846127b5565b901c915061241a826405035ad9006127b5565b6124249082612742565b905060ff841661243486846127b5565b901c915061244682632f881b006127b5565b6124509082612742565b905060ff841661246086846127b5565b901c9150612472826301b293406127b5565b61247c9082612742565b905060ff841661248c86846127b5565b901c915061249d82620efc406127b5565b6124a79082612742565b905060ff84166124b786846127b5565b901c91506124c782617fe06127b5565b6124d19082612742565b905060ff84166124e186846127b5565b901c91506124f1826104206127b5565b6124fb9082612742565b905060ff841661250b86846127b5565b901c915061251a8260216127b5565b6125249082612742565b905060ff841661253486846127b5565b901c91506125438260016127b5565b61254d9082612742565b9050600160ff85161b856125716f0688589cc0e9505e2f2fee55800000008461277f565b61257b9190612742565b6125859190612742565b95945050505050565b600080826101008110156125c2575b60018111156125bd57600190811c906125b6908361275a565b915061259d565b6125f6565b60805b60ff8116156125f457600160ff82161b82106125e9579182179160ff81169190911c905b60011c607f166125c5565b505b5092915050565b60006020828403121561260e578081fd5b81356001600160a01b0381168114610e84578182fd5b600060208284031215612635578081fd5b81518015158114610e84578182fd5b600060208284031215612655578081fd5b5035919050565b60006020828403121561266d578081fd5b5051919050565b60008060008060808587031215612689578283fd5b8435935060208501359250604085013563ffffffff811681146126aa578283fd5b9396929550929360600135925050565b6000602080835283518082850152825b818110156126e6578581018301518582016040015282016126ca565b818111156126f75783604083870101525b50601f01601f1916929092016040019392505050565b6020808252818101527f4f776e61626c653a2063616c6c6572206973206e6f7420746865206f776e6572604082015260600190565b600082198211156127555761275561287a565b500190565b600060ff821660ff84168060ff038211156127775761277761287a565b019392505050565b60008261278e5761278e612890565b500490565b600060ff8316806127a6576127a6612890565b8060ff84160491505092915050565b60008160001904831182151516156127cf576127cf61287a565b500290565b6000828210156127e6576127e661287a565b500390565b600060ff821660ff8416808210156128055761280561287a565b90039392505050565b600060ff8216806128215761282161287a565b6000190192915050565b600181811c9082168061283f57607f821691505b6020821081141561286057634e487b7160e01b600052602260045260246000fd5b50919050565b60008261287557612875612890565b500690565b634e487b7160e01b600052601160045260246000fd5b634e487b7160e01b600052601260045260246000fdfea26469706673582212209f01cd9b61809701e705f844660c7d17b1f148de7a0e775518e835dc002178c464736f6c63430008040033",
  "linkReferences": {},
  "deployedLinkReferences": {}
}