{
  "_format": "hh-sol-artifact-1",
  "contractName": "BondingCurve",
  "sourceName": "contracts/BondingCurve.sol",
  "abi": [
    {
      "inputs": [
        {
          "internalType": "uint256",
          "name": "_supply",
          "type": "uint256"
        },
        {
          "internalType": "uint256",
          "name": "_connectorWeight",
          "type": "uint256"
        }
      ],
      "stateMutability": "nonpayable",
      "type": "constructor"
    },
    {
      "anonymous": false,
      "inputs": [
        {
          "indexed": true,
          "internalType": "address",
          "name": "previousOwner",
          "type": "address"
        },
        {
          "indexed": true,
          "internalType": "address",
          "name": "newOwner",
          "type": "address"
        }
      ],
      "name": "OwnershipTransferred",
      "type": "event"
    },
    {
      "inputs": [],
      "name": "balance",
      "outputs": [
        {
          "internalType": "uint256",
          "name": "",
          "type": "uint256"
        }
      ],
      "stateMutability": "view",
      "type": "function"
    },
    {
      "inputs": [
        {
          "internalType": "uint256",
          "name": "_supply",
          "type": "uint256"
        },
        {
          "internalType": "uint256",
          "name": "_connectorBalance",
          "type": "uint256"
        },
        {
          "internalType": "uint32",
          "name": "_connectorWeight",
          "type": "uint32"
        },
        {
          "internalType": "uint256",
          "name": "_depositAmount",
          "type": "uint256"
        }
      ],
      "name": "calculatePurchaseReturn",
      "outputs": [
        {
          "internalType": "uint256",
          "name": "",
          "type": "uint256"
        }
      ],
      "stateMutability": "view",
      "type": "function"
    },
    {
      "inputs": [
        {
          "internalType": "uint256",
          "name": "_supply",
          "type": "uint256"
        },
        {
          "internalType": "uint256",
          "name": "_connectorBalance",
          "type": "uint256"
        },
        {
          "internalType": "uint32",
          "name": "_connectorWeight",
          "type": "uint32"
        },
        {
          "internalType": "uint256",
          "name": "_sellAmount",
          "type": "uint256"
        }
      ],
      "name": "calculateSaleReturn",
      "outputs": [
        {
          "internalType": "uint256",
          "name": "",
          "type": "uint256"
        }
      ],
      "stateMutability": "view",
      "type": "function"
    },
    {
      "inputs": [],
      "name": "connectorWeight",
      "outputs": [
        {
          "internalType": "uint256",
          "name": "",
          "type": "uint256"
        }
      ],
      "stateMutability": "view",
      "type": "function"
    },
    {
      "inputs": [],
      "name": "maxGasPrice",
      "outputs": [
        {
          "internalType": "uint256",
          "name": "",
          "type": "uint256"
        }
      ],
      "stateMutability": "view",
      "type": "function"
    },
    {
      "inputs": [],
      "name": "owner",
      "outputs": [
        {
          "internalType": "address",
          "name": "",
          "type": "address"
        }
      ],
      "stateMutability": "view",
      "type": "function"
    },
    {
      "inputs": [],
      "name": "renounceOwnership",
      "outputs": [],
      "stateMutability": "nonpayable",
      "type": "function"
    },
    {
      "inputs": [
        {
          "internalType": "uint256",
          "name": "newMax",
          "type": "uint256"
        }
      ],
      "name": "setMaxGasPrice",
      "outputs": [
        {
          "internalType": "bool",
          "name": "",
          "type": "bool"
        }
      ],
      "stateMutability": "nonpayable",
      "type": "function"
    },
    {
      "inputs": [],
      "name": "supply",
      "outputs": [
        {
          "internalType": "uint256",
          "name": "",
          "type": "uint256"
        }
      ],
      "stateMutability": "view",
      "type": "function"
    },
    {
      "inputs": [
        {
          "internalType": "address",
          "name": "newOwner",
          "type": "address"
        }
      ],
      "name": "transferOwnership",
      "outputs": [],
      "stateMutability": "nonpayable",
      "type": "function"
    },
    {
      "inputs": [],
      "name": "version",
      "outputs": [
        {
          "internalType": "string",
          "name": "",
          "type": "string"
        }
      ],
      "stateMutability": "view",
      "type": "function"
    }
  ],
  "bytecode": "0x60c06040526003608081905262302e3360e81b60a090815262000026916000919062000813565b50670de0b6b3a764000060825564e8d4a510006086553480156200004957600080fd5b50604051620026f1380380620026f18339810160408190526200006c91620008b9565b6001641c35fedd1560601b036021556001646c3390ecc9605e1b036022556001640cf801476160611b0360235560016431bdb23e1d605f1b0360245560016502fb1d8fe083605b1b0360255560016505b771955b37605a1b036026556001650af67a93bb5160591b0360275560016515060c256cb360581b036028556001651428a2f98d7360581b036029556001654d515663970960561b03602a55600165944620b0e70f60551b03602b55600166011c592761c66760541b03602c5560016602214d10d014eb60531b03602d55600166020ade36b7dbef60531b03602e5560016603eab73b3bbfe360521b03602f556001660782ee3593f6d760511b036030556001661ccf4b44bb4821604f1b0360315560016606e7f88ad8a77760511b0360325560016669f3d1c921891d604d1b03603355600166cb2ff529eb71e5604c1b03603455600166c2d415c3db974b604c1b0360355560016702eb40f9f620fda7604a1b0360365560016705990681d961a1eb60491b03603755600167055e12902701414760491b0360385560016714962dee9dc9764160471b0360395560016704ef57b9b560fab560491b03603a5560016712ed7b32a58f552b60471b03603b556001679131271922eaa60760441b03603c556001678b380f3558668c4760441b03603d556001680215f77c045fbe885760421b03603e556001600160831b03603f556001670f577eded5773a1160471b036040556001680eb5ec597592befbf5603f1b036041556001681c35fedd14b861eb05603e1b036042556001683619c87664579bc94b603d1b0360435560016867c00a3b07ffc01fd7603c1b03604455600168c6f6c8f8739773a7a5603b1b03604555600168bec763f8209b7a72b1603b1b0360465560016902dbb8caad9b7097b91b60391b03604755600169057b3d49dda84556d6f760381b03604855600169054183095b2c8ececf3160381b036049556001690a14517cc6b9457111ef60371b03604a5560016913545598e5c23276ccf160361b03604b556001692511882c39c3adea96ff60351b03604c55600169471649d87199aa99075760341b03604d557004429a21a029d4c1457cfbffffffffffff604e55700415bc6d6fb7dd71af2cb3ffffffffffff604f557003eab73b3bbfe282243ce1ffffffffffff6050557003c1771ac9fb6b4c18e229ffffffffffff605155700399e96897690418f785257fffffffffff605255700373fc456c53bb779bf0ea9fffffffffff60535570034f9e8e490c48e67e6ab8bfffffffffff60545570032cbfd4a7adc790560b3337ffffffffff60555570030b50570f6e5d2acca94613ffffffffff6056557002eb40f9f620fda6b56c2861ffffffffff6057557002cc8340ecb0d0f520a6af58ffffffffff6058557002af09481380a0a35cf1ba02ffffffffff605955700292c5bdd3b92ec810287b1b3fffffffff605a55700277abdcdab07d5a77ac6d6b9fffffffff605b5570025daf6654b1eaa55fd64df5efffffffff605c55700244c49c648baa98192dce88b7ffffffff605d5570022ce03cd5619a311b2471268bffffffff605e55700215f77c045fbe885654a44a0fffffffff605f556001600160811b036060557001eaefdbdaaee7421fc4d3ede5ffffffff6061557001d6bd8b2eb257df7e8ca57b09bfffffff6062557001c35fedd14b861eb0443f7f133fffffff6063557001b0ce43b322bcde4a56e8ada5afffffff60645570019f0028ec1fff007f5a195a39dfffffff60655570018ded91f0e72ee74f49b15ba527ffffff60665570017d8ec7f04136f4e5615fd41a63ffffff60675570016ddc6556cdb84bdc8d12d22e6fffffff60685570015ecf52776a1155b5bd8395814f7fffff60695570015060c256cb23b3b3cc3754cf40ffffff606a557001428a2f98d728ae223ddab715be3fffff606b5570013545598e5c23276ccf0ede68034fffff606c557001288c4161ce1d6f54b7f61081194fffff606d5570011c592761c666aa641d5a01a40f17ffff606e55700110a688680a7530515f3e6e6cfdcdffff606f557001056f1b5bedf75c6bcb2ce8aed428ffff6070556ffaadceceeff8a0890f3875f008277fff6071556ff05dc6b27edad306388a600f6ba0bfff6072556fe67a5a25da41063de1495d5b18cdbfff6073556fdcff115b14eedde6fc3aa5353f2e4fff6074556fd3e7a3924312399f9aae2e0f868f8fff6075556fcb2ff529eb71e41582cccd5a1ee26fff6076556fc2d415c3db974ab32a51840c0b67edff6077556fbad03e7d883f69ad5b0a186184e06bff6078556fb320d03b2c343d4829abd6075f0cc5ff6079556fabc25204e02828d73c6e80bcdb1a95bf607a556fa4b16f74ee4bb2040a1ec6c15fbbf2df607b556f9deaf736ac1f569deb1b5ae3f36c130f607c556f976bd9952c7aa957f5937d790ef65037607d556f9131271922eaa6064b73a22d0bd4f2bf607e556f8b380f3558668c46c91c49a2f8e967b9607f556f857ddf0117efa215952912839f6473e6608055620007a033620007c1565b608654620007af9083620008dd565b60858190556083556084555062000946565b608180546001600160a01b038381166001600160a01b0319831681179093556040519116919082907f8be0079c531659141344cd1fd0a4f28419497f9722a3daafe3b4186f6b6457e090600090a35050565b828054620008219062000909565b90600052602060002090601f01602090048101928262000845576000855562000890565b82601f106200086057805160ff191683800117855562000890565b8280016001018555821562000890579182015b828111156200089057825182559160200191906001019062000873565b506200089e929150620008a2565b5090565b5b808211156200089e5760008155600101620008a3565b60008060408385031215620008cc578182fd5b505080516020909101519092909150565b60008160001904831182151516156200090457634e487b7160e01b81526011600452602481fd5b500290565b600181811c908216806200091e57607f821691505b602082108114156200094057634e487b7160e01b600052602260045260246000fd5b50919050565b611d9b80620009566000396000f3fe608060405234801561001057600080fd5b50600436106100a95760003560e01c8063715018a611610071578063715018a61461010e5780638da5cb5b14610118578063b586c9a214610133578063b69ef8a81461013c578063d2fa635e14610145578063f2fde38b1461016857600080fd5b8063047fc9aa146100ae57806329a00e7c146100ca5780633de39c11146100dd57806349f9b0f7146100e657806354fd4d50146100f9575b600080fd5b6100b760855481565b6040519081526020015b60405180910390f35b6100b76100d8366004611b33565b61017b565b6100b760825481565b6100b76100f4366004611b33565b610246565b610101610323565b6040516100c19190611b79565b6101166103b1565b005b6081546040516001600160a01b0390911681526020016100c1565b6100b760845481565b6100b760835481565b610158610153366004611b1b565b6103f0565b60405190151581526020016100c1565b610116610176366004611af4565b610426565b6000808511801561018c5750600084115b801561019e575060008363ffffffff16115b80156101b35750620f424063ffffffff841611155b6101bc57600080fd5b816101c95750600061023e565b63ffffffff8316620f424014156101f5576101ee846101e887856104c1565b906104d4565b905061023e565b6000808061020385886104e0565b9050610214818888620f42406104ec565b9093509150600060ff83166102298a866104c1565b901c90506102378982611c93565b9450505050505b949350505050565b600080851180156102575750600084115b8015610269575060008363ffffffff16115b801561027e5750620f424063ffffffff841611155b801561028a5750848211155b61029357600080fd5b816102a05750600061023e565b848214156102af57508261023e565b63ffffffff8316620f424014156102ce576101ee856101e886856104c1565b600080806102dc8589611c93565b90506102ed8882620f4240896104ec565b909350915060006102fe88856104c1565b905060ff831688901b610315856101e8848461063a565b9a9950505050505050505050565b6000805461033090611cea565b80601f016020809104026020016040519081016040528092919081815260200182805461035c90611cea565b80156103a95780601f1061037e576101008083540402835291602001916103a9565b820191906000526020600020905b81548152906001019060200180831161038c57829003601f168201915b505050505081565b6081546001600160a01b031633146103e45760405162461bcd60e51b81526004016103db90611bcc565b60405180910390fd5b6103ee6000610646565b565b6081546000906001600160a01b0316331461041d5760405162461bcd60e51b81526004016103db90611bcc565b50608255600190565b6081546001600160a01b031633146104505760405162461bcd60e51b81526004016103db90611bcc565b6001600160a01b0381166104b55760405162461bcd60e51b815260206004820152602660248201527f4f776e61626c653a206e6577206f776e657220697320746865207a65726f206160448201526564647265737360d01b60648201526084016103db565b6104be81610646565b50565b60006104cd8284611c74565b9392505050565b60006104cd8284611c3e565b60006104cd8284611c01565b600080600160811b861061051057634e487b7160e01b600052600160045260246000fd5b848610156105605760405162461bcd60e51b815260206004820152601c60248201527f4261736573203c203120617265206e6f7420737570706f727465642e0000000060448201526064016103db565b600080866105726001607f1b8a611c74565b61057c9190611c3e565b905070015bf0a8b1457695355fb8ac404e7a79e38110156105a7576105a081610698565b91506105b3565b6105b081610c11565b91505b60008563ffffffff168763ffffffff16846105ce9190611c74565b6105d89190611c3e565b9050600160831b8110156105fd576105ef81610d00565b607f94509450505050610631565b60006106088261132b565b905061062461061882607f611caa565b60ff1683901c8261141e565b9550935061063192505050565b94509492505050565b60006104cd8284611c93565b608180546001600160a01b038381166001600160a01b0319831681179093556040519116919082907f8be0079c531659141344cd1fd0a4f28419497f9722a3daafe3b4186f6b6457e090600090a35050565b6000808080806fd3094c70f034de4b96ff7d5b6f99fcd886106106f1576106c36001607e1b85611c01565b93506fd3094c70f034de4b96ff7d5b6f99fcd86106e46001607f1b88611c74565b6106ee9190611c3e565b95505b6fa45af1e1f40c333b3de1db4dd55f29a78610610744576107166001607d1b85611c01565b93506fa45af1e1f40c333b3de1db4dd55f29a76107376001607f1b88611c74565b6107419190611c3e565b95505b6f910b022db7ae67ce76b441c27035c6a18610610797576107696001607c1b85611c01565b93506f910b022db7ae67ce76b441c27035c6a161078a6001607f1b88611c74565b6107949190611c3e565b95505b6f88415abbe9a76bead8d00cf112e4d4a886106107ea576107bc6001607b1b85611c01565b93506f88415abbe9a76bead8d00cf112e4d4a86107dd6001607f1b88611c74565b6107e79190611c3e565b95505b6f84102b00893f64c705e841d5d4064bd3861061083d5761080f6001607a1b85611c01565b93506f84102b00893f64c705e841d5d4064bd36108306001607f1b88611c74565b61083a9190611c3e565b95505b6f8204055aaef1c8bd5c3259f4822735a2861061089057610862600160791b85611c01565b93506f8204055aaef1c8bd5c3259f4822735a26108836001607f1b88611c74565b61088d9190611c3e565b95505b6f810100ab00222d861931c15e39b44e9986106108e3576108b5600160781b85611c01565b93506f810100ab00222d861931c15e39b44e996108d66001607f1b88611c74565b6108e09190611c3e565b95505b6f808040155aabbbe9451521693554f733861061093657610908600160771b85611c01565b93506f808040155aabbbe9451521693554f7336109296001607f1b88611c74565b6109339190611c3e565b95505b6109446001607f1b87611c93565b92508291506001607f1b6109588380611c74565b6109629190611c3e565b9050600160801b6109738482611c93565b61097d9084611c74565b6109879190611c3e565b6109919085611c01565b93506001607f1b6109a28284611c74565b6109ac9190611c3e565b9150600160811b6109cd846faaaaaaaaaaaaaaaaaaaaaaaaaaaaaaaa611c93565b6109d79084611c74565b6109e19190611c3e565b6109eb9085611c01565b93506001607f1b6109fc8284611c74565b610a069190611c3e565b9150600360801b610a27846f99999999999999999999999999999999611c93565b610a319084611c74565b610a3b9190611c3e565b610a459085611c01565b93506001607f1b610a568284611c74565b610a609190611c3e565b9150600160821b610a81846f92492492492492492492492492492492611c93565b610a8b9084611c74565b610a959190611c3e565b610a9f9085611c01565b93506001607f1b610ab08284611c74565b610aba9190611c3e565b9150600560801b610adb846f8e38e38e38e38e38e38e38e38e38e38e611c93565b610ae59084611c74565b610aef9190611c3e565b610af99085611c01565b93506001607f1b610b0a8284611c74565b610b149190611c3e565b9150600360811b610b35846f8ba2e8ba2e8ba2e8ba2e8ba2e8ba2e8b611c93565b610b3f9084611c74565b610b499190611c3e565b610b539085611c01565b93506001607f1b610b648284611c74565b610b6e9190611c3e565b9150600760801b610b8f846f89d89d89d89d89d89d89d89d89d89d89611c93565b610b999084611c74565b610ba39190611c3e565b610bad9085611c01565b93506001607f1b610bbe8284611c74565b610bc89190611c3e565b9150600160831b610be9846f88888888888888888888888888888888611c93565b610bf39084611c74565b610bfd9190611c3e565b610c079085611c01565b9695505050505050565b60008082600160801b8110610c56576000610c38610c336001607f1b84611c3e565b611a85565b60ff811692831c92909150610c52906001607f1b90611c74565b9250505b6001607f1b811115610ccb57607f5b60ff811615610cc9576001607f1b610c7d8380611c74565b610c879190611c3e565b9150600160801b8210610cb957600191821c91610ca49082611caa565b60ff166001901b83610cb69190611c01565b92505b610cc281611ccd565b9050610c65565b505b6f05b9de1d10bf4103d647b0955897ba80610cf66f03f80fe03f80fe03f80fe03f80fe03f884611c74565b61023e9190611c3e565b6000808080610d136001607c1b86611d25565b91508190506001607f1b610d278280611c74565b610d319190611c3e565b9050610d45816710e1b3be415a0000611c74565b610d4f9084611c01565b92506001607f1b610d608383611c74565b610d6a9190611c3e565b9050610d7e816705a0913f6b1e0000611c74565b610d889084611c01565b92506001607f1b610d998383611c74565b610da39190611c3e565b9050610db781670168244fdac78000611c74565b610dc19084611c01565b92506001607f1b610dd28383611c74565b610ddc9190611c3e565b9050610def81664807432bc18000611c74565b610df99084611c01565b92506001607f1b610e0a8383611c74565b610e149190611c3e565b9050610e2781660c0135dca04000611c74565b610e319084611c01565b92506001607f1b610e428383611c74565b610e4c9190611c3e565b9050610e5f816601b707b1cdc000611c74565b610e699084611c01565b92506001607f1b610e7a8383611c74565b610e849190611c3e565b9050610e96816536e0f639b800611c74565b610ea09084611c01565b92506001607f1b610eb18383611c74565b610ebb9190611c3e565b9050610ecd81650618fee9f800611c74565b610ed79084611c01565b92506001607f1b610ee88383611c74565b610ef29190611c3e565b9050610f0381649c197dcc00611c74565b610f0d9084611c01565b92506001607f1b610f1e8383611c74565b610f289190611c3e565b9050610f3981640e30dce400611c74565b610f439084611c01565b92506001607f1b610f548383611c74565b610f5e9190611c3e565b9050610f6f8164012ebd1300611c74565b610f799084611c01565b92506001607f1b610f8a8383611c74565b610f949190611c3e565b9050610fa4816317499f00611c74565b610fae9084611c01565b92506001607f1b610fbf8383611c74565b610fc99190611c3e565b9050610fd9816301a9d480611c74565b610fe39084611c01565b92506001607f1b610ff48383611c74565b610ffe9190611c3e565b905061100d81621c6380611c74565b6110179084611c01565b92506001607f1b6110288383611c74565b6110329190611c3e565b9050611041816201c638611c74565b61104b9084611c01565b92506001607f1b61105c8383611c74565b6110669190611c3e565b905061107481611ab8611c74565b61107e9084611c01565b92506001607f1b61108f8383611c74565b6110999190611c3e565b90506110a78161017c611c74565b6110b19084611c01565b92506001607f1b6110c28383611c74565b6110cc9190611c3e565b90506110d9816014611c74565b6110e39084611c01565b92506001607f1b6110f48383611c74565b6110fe9190611c3e565b905061110b816001611c74565b6111159084611c01565b92506001607f1b8261112f6721c3677c82b4000086611c3e565b6111399190611c01565b6111439190611c01565b92506001607c1b85161561118b5770018ebef9eac820ae8682b9793ac6d1e77661117e847001c3d6a24ed82218787d624d3e5eba95f9611c74565b6111889190611c3e565b92505b6001607d1b8516156111d1577001368b2fc6f9609fe7aceb46aa619baed46111c48470018ebef9eac820ae8682b9793ac6d1e778611c74565b6111ce9190611c3e565b92505b6001607e1b851615611216576fbc5ab1b16779be3575bd8f0520a9f21f611209847001368b2fc6f9609fe7aceb46aa619baed5611c74565b6112139190611c3e565b92505b6001607f1b85161561125a576f454aaa8efe072e7f6ddbab84b40a55c961124d846fbc5ab1b16779be3575bd8f0520a9f21e611c74565b6112579190611c3e565b92505b600160801b85161561129e576f0960aadc109e7a3bf4578099615711ea611291846f454aaa8efe072e7f6ddbab84b40a55c5611c74565b61129b9190611c3e565b92505b600160811b8516156112e1576e2bf84208204f5977f9a8cf01fdce3d6112d4846f0960aadc109e7a3bf4578099615711d7611c74565b6112de9190611c3e565b92505b600160821b851615611322576d03c6ab775dd0b95b4cbee7e65d11611315846e2bf84208204f5977f9a8cf01fdc307611c74565b61131f9190611c3e565b92505b50909392505050565b60006020607f5b60ff8116611341836001611c19565b60ff1610156113a257600060026113588385611c19565b6113629190611c52565b90508460018260ff166080811061138957634e487b7160e01b600052603260045260246000fd5b0154106113985780925061139c565b8091505b50611332565b8360018260ff16608081106113c757634e487b7160e01b600052603260045260246000fd5b0154106113d5579392505050565b8360018360ff16608081106113fa57634e487b7160e01b600052603260045260246000fd5b015410611408575092915050565b634e487b7160e01b600052600160045260246000fd5b6000828160ff84166114308380611c74565b901c915061144e826f03442c4e6074a82f1797f72ac0000000611c74565b6114589082611c01565b905060ff84166114688684611c74565b901c9150611486826f0116b96f757c380fb287fd0e40000000611c74565b6114909082611c01565b905060ff84166114a08684611c74565b901c91506114bd826e45ae5bdd5f0e03eca1ff4390000000611c74565b6114c79082611c01565b905060ff84166114d78684611c74565b901c91506114f4826e0defabf91302cd95b9ffda50000000611c74565b6114fe9082611c01565b905060ff841661150e8684611c74565b901c915061152b826e02529ca9832b22439efff9b8000000611c74565b6115359082611c01565b905060ff84166115458684611c74565b901c9150611561826d54f1cf12bd04e516b6da88000000611c74565b61156b9082611c01565b905060ff841661157b8684611c74565b901c9150611597826d0a9e39e257a09ca2d6db51000000611c74565b6115a19082611c01565b905060ff84166115b18684611c74565b901c91506115cd826d012e066e7b839fa050c309000000611c74565b6115d79082611c01565b905060ff84166115e78684611c74565b901c9150611602826c1e33d7d926c329a1ad1a800000611c74565b61160c9082611c01565b905060ff841661161c8684611c74565b901c9150611637826c02bee513bdb4a6b19b5f800000611c74565b6116419082611c01565b905060ff84166116518684611c74565b901c915061166b826b3a9316fa79b88eccf2a00000611c74565b6116759082611c01565b905060ff84166116858684611c74565b901c915061169f826b048177ebe1fa812375200000611c74565b6116a99082611c01565b905060ff84166116b98684611c74565b901c91506116d2826a5263fe90242dcbacf00000611c74565b6116dc9082611c01565b905060ff84166116ec8684611c74565b901c9150611705826a057e22099c030d94100000611c74565b61170f9082611c01565b905060ff841661171f8684611c74565b901c9150611737826957e22099c030d9410000611c74565b6117419082611c01565b905060ff84166117518684611c74565b901c91506117698269052b6b54569976310000611c74565b6117739082611c01565b905060ff84166117838684611c74565b901c915061179a82684985f67696bf748000611c74565b6117a49082611c01565b905060ff84166117b48684611c74565b901c91506117cb826803dea12ea99e498000611c74565b6117d59082611c01565b905060ff84166117e58684611c74565b901c91506117fb826731880f2214b6e000611c74565b6118059082611c01565b905060ff84166118158684611c74565b901c915061182b8267025bcff56eb36000611c74565b6118359082611c01565b905060ff84166118458684611c74565b901c915061185a82661b722e10ab1000611c74565b6118649082611c01565b905060ff84166118748684611c74565b901c9150611889826601317c70077000611c74565b6118939082611c01565b905060ff84166118a38684611c74565b901c91506118b782650cba84aafa00611c74565b6118c19082611c01565b905060ff84166118d18684611c74565b901c91506118e4826482573a0a00611c74565b6118ee9082611c01565b905060ff84166118fe8684611c74565b901c9150611911826405035ad900611c74565b61191b9082611c01565b905060ff841661192b8684611c74565b901c915061193d82632f881b00611c74565b6119479082611c01565b905060ff84166119578684611c74565b901c9150611969826301b29340611c74565b6119739082611c01565b905060ff84166119838684611c74565b901c915061199482620efc40611c74565b61199e9082611c01565b905060ff84166119ae8684611c74565b901c91506119be82617fe0611c74565b6119c89082611c01565b905060ff84166119d88684611c74565b901c91506119e882610420611c74565b6119f29082611c01565b905060ff8416611a028684611c74565b901c9150611a11826021611c74565b611a1b9082611c01565b905060ff8416611a2b8684611c74565b901c9150611a3a826001611c74565b611a449082611c01565b9050600160ff85161b85611a686f0688589cc0e9505e2f2fee558000000084611c3e565b611a729190611c01565b611a7c9190611c01565b95945050505050565b60008082610100811015611ab9575b6001811115611ab457600190811c90611aad9083611c19565b9150611a94565b611aed565b60805b60ff811615611aeb57600160ff82161b8210611ae0579182179160ff81169190911c905b60011c607f16611abc565b505b5092915050565b600060208284031215611b05578081fd5b81356001600160a01b03811681146104cd578182fd5b600060208284031215611b2c578081fd5b5035919050565b60008060008060808587031215611b48578283fd5b8435935060208501359250604085013563ffffffff81168114611b69578283fd5b9396929550929360600135925050565b6000602080835283518082850152825b81811015611ba557858101830151858201604001528201611b89565b81811115611bb65783604083870101525b50601f01601f1916929092016040019392505050565b6020808252818101527f4f776e61626c653a2063616c6c6572206973206e6f7420746865206f776e6572604082015260600190565b60008219821115611c1457611c14611d39565b500190565b600060ff821660ff84168060ff03821115611c3657611c36611d39565b019392505050565b600082611c4d57611c4d611d4f565b500490565b600060ff831680611c6557611c65611d4f565b8060ff84160491505092915050565b6000816000190483118215151615611c8e57611c8e611d39565b500290565b600082821015611ca557611ca5611d39565b500390565b600060ff821660ff841680821015611cc457611cc4611d39565b90039392505050565b600060ff821680611ce057611ce0611d39565b6000190192915050565b600181811c90821680611cfe57607f821691505b60208210811415611d1f57634e487b7160e01b600052602260045260246000fd5b50919050565b600082611d3457611d34611d4f565b500690565b634e487b7160e01b600052601160045260246000fd5b634e487b7160e01b600052601260045260246000fdfea2646970667358221220e3ae56b84b9818a7f8d7cdde2e603974428dd404e2a3719998e3a753add03ab764736f6c63430008040033",
  "linkReferences": {},
  "deployedLinkReferences": {}
}